{
  "contractName": "CamoParcel",
  "abi": [
    {
      "inputs": [],
      "stateMutability": "nonpayable",
      "type": "constructor"
    },
    {
      "anonymous": false,
      "inputs": [
        {
          "indexed": false,
          "internalType": "address",
          "name": "",
          "type": "address"
        },
        {
          "indexed": false,
          "internalType": "uint256",
          "name": "",
          "type": "uint256"
        }
      ],
      "name": "ParcelDelivered",
      "type": "event"
    },
    {
      "anonymous": false,
      "inputs": [
        {
          "indexed": false,
          "internalType": "address",
          "name": "",
          "type": "address"
        },
        {
          "indexed": false,
          "internalType": "uint256",
          "name": "",
          "type": "uint256"
        }
      ],
      "name": "ParcelLocationUpdated",
      "type": "event"
    },
    {
      "anonymous": false,
      "inputs": [
        {
          "indexed": false,
          "internalType": "address",
          "name": "",
          "type": "address"
        },
        {
          "indexed": false,
          "internalType": "uint256",
          "name": "",
          "type": "uint256"
        }
      ],
      "name": "ParcelShippedEvent",
      "type": "event"
    },
    {
      "stateMutability": "payable",
      "type": "fallback"
    },
    {
      "stateMutability": "payable",
      "type": "receive"
    },
    {
      "inputs": [
        {
          "internalType": "address",
          "name": "shipper",
          "type": "address"
        }
      ],
      "name": "addShipper",
      "outputs": [],
      "stateMutability": "nonpayable",
      "type": "function"
    },
    {
      "inputs": [
        {
          "internalType": "address",
          "name": "user",
          "type": "address"
        }
      ],
      "name": "removeAssociate",
      "outputs": [],
      "stateMutability": "nonpayable",
      "type": "function"
    },
    {
      "inputs": [
        {
          "internalType": "address",
          "name": "shipper",
          "type": "address"
        }
      ],
      "name": "removeShipper",
      "outputs": [],
      "stateMutability": "nonpayable",
      "type": "function"
    },
    {
      "inputs": [
        {
          "internalType": "address",
          "name": "partner",
          "type": "address"
        }
      ],
      "name": "addPartner",
      "outputs": [],
      "stateMutability": "nonpayable",
      "type": "function"
    },
    {
      "inputs": [
        {
          "internalType": "address",
          "name": "partner",
          "type": "address"
        }
      ],
      "name": "removePartner",
      "outputs": [],
      "stateMutability": "nonpayable",
      "type": "function"
    },
    {
      "inputs": [
        {
          "internalType": "string",
          "name": "itemName",
          "type": "string"
        },
        {
          "internalType": "string",
          "name": "itemDesc",
          "type": "string"
        },
        {
          "internalType": "address",
          "name": "userAddress",
          "type": "address"
        },
        {
          "internalType": "uint256",
          "name": "expectedDelivery",
          "type": "uint256"
        },
        {
          "internalType": "uint256",
          "name": "baseCompensation",
          "type": "uint256"
        },
        {
          "internalType": "uint256",
          "name": "otp",
          "type": "uint256"
        }
      ],
      "name": "shipOrder",
      "outputs": [
        {
          "internalType": "uint256",
          "name": "",
          "type": "uint256"
        }
      ],
      "stateMutability": "nonpayable",
      "type": "function"
    },
    {
      "inputs": [
        {
          "internalType": "uint256[]",
          "name": "pIds",
          "type": "uint256[]"
        },
        {
          "internalType": "string",
          "name": "location",
          "type": "string"
        }
      ],
      "name": "updateLocation",
      "outputs": [],
      "stateMutability": "nonpayable",
      "type": "function"
    },
    {
      "inputs": [
        {
          "internalType": "uint256",
          "name": "pId",
          "type": "uint256"
        },
        {
          "internalType": "uint256",
          "name": "otp",
          "type": "uint256"
        }
      ],
      "name": "markParcelDelivered",
      "outputs": [
        {
          "internalType": "uint256",
          "name": "",
          "type": "uint256"
        }
      ],
      "stateMutability": "nonpayable",
      "type": "function"
    },
    {
      "inputs": [],
      "name": "viewMyParcels",
      "outputs": [
        {
          "components": [
            {
              "internalType": "uint256",
              "name": "id",
              "type": "uint256"
            },
            {
              "internalType": "address",
              "name": "receiver",
              "type": "address"
            },
            {
              "internalType": "string",
              "name": "itemName",
              "type": "string"
            },
            {
              "internalType": "string",
              "name": "itemDesc",
              "type": "string"
            },
            {
              "internalType": "uint256",
              "name": "expectedDelivery",
              "type": "uint256"
            },
            {
              "internalType": "uint256",
              "name": "status",
              "type": "uint256"
            },
            {
              "internalType": "string",
              "name": "currentLocation",
              "type": "string"
            },
            {
              "internalType": "uint256",
              "name": "baseCompensation",
              "type": "uint256"
            },
            {
              "internalType": "uint256",
              "name": "otp",
              "type": "uint256"
            }
          ],
          "internalType": "struct CamoParcel.Parcel[]",
          "name": "",
          "type": "tuple[]"
        }
      ],
      "stateMutability": "view",
      "type": "function"
    },
    {
      "inputs": [
        {
          "internalType": "uint256",
          "name": "pId",
          "type": "uint256"
        }
      ],
      "name": "viewparcel",
      "outputs": [
        {
          "components": [
            {
              "internalType": "uint256",
              "name": "id",
              "type": "uint256"
            },
            {
              "internalType": "address",
              "name": "receiver",
              "type": "address"
            },
            {
              "internalType": "string",
              "name": "itemName",
              "type": "string"
            },
            {
              "internalType": "string",
              "name": "itemDesc",
              "type": "string"
            },
            {
              "internalType": "uint256",
              "name": "expectedDelivery",
              "type": "uint256"
            },
            {
              "internalType": "uint256",
              "name": "status",
              "type": "uint256"
            },
            {
              "internalType": "string",
              "name": "currentLocation",
              "type": "string"
            },
            {
              "internalType": "uint256",
              "name": "baseCompensation",
              "type": "uint256"
            },
            {
              "internalType": "uint256",
              "name": "otp",
              "type": "uint256"
            }
          ],
          "internalType": "struct CamoParcel.Parcel",
          "name": "",
          "type": "tuple"
        }
      ],
      "stateMutability": "view",
      "type": "function"
    },
    {
      "inputs": [],
      "name": "withdrawFunds",
      "outputs": [],
      "stateMutability": "payable",
      "type": "function"
    },
    {
      "inputs": [],
      "name": "getBalance",
      "outputs": [
        {
          "internalType": "uint256",
          "name": "",
          "type": "uint256"
        }
      ],
      "stateMutability": "view",
      "type": "function"
    },
    {
      "inputs": [],
      "name": "fund",
      "outputs": [],
      "stateMutability": "payable",
      "type": "function"
    },
    {
      "inputs": [],
      "name": "getMyType",
      "outputs": [
        {
          "internalType": "uint16",
          "name": "",
          "type": "uint16"
        }
      ],
      "stateMutability": "view",
      "type": "function"
    }
  ],
  "bytecode": "0x6080604052600060035534801561001557600080fd5b50336000806101000a81548173ffffffffffffffffffffffffffffffffffffffff021916908373ffffffffffffffffffffffffffffffffffffffff160217905550612d23806100656000396000f3fe6080604052600436106100e15760003560e01c80637c6bff431161007f578063b27f307011610059578063b27f3070146102a5578063b60d4288146102ce578063c0031b9b146102d8578063ea3c281a14610303576100e8565b80637c6bff43146102285780638bf34237146102535780639909c6d41461027c576100e8565b80633883e369116100bb5780633883e36914610148578063406c05ae1461018557806345461949146101c25780634e15e4f5146101eb576100e8565b806312065fe0146100ea578063155a76461461011557806324600fc31461013e576100e8565b366100e857005b005b3480156100f657600080fd5b506100ff61032c565b60405161010c9190611bf3565b60405180910390f35b34801561012157600080fd5b5061013c60048036038101906101379190611c80565b610334565b005b6101466104a9565b005b34801561015457600080fd5b5061016f600480360381019061016a9190611cd9565b610580565b60405161017c9190611bf3565b60405180910390f35b34801561019157600080fd5b506101ac60048036038101906101a79190611e5f565b6108c1565b6040516101b99190611bf3565b60405180910390f35b3480156101ce57600080fd5b506101e960048036038101906101e49190611fec565b610cb2565b005b3480156101f757600080fd5b50610212600480360381019061020d9190612064565b610eab565b60405161021f9190612201565b60405180910390f35b34801561023457600080fd5b5061023d6111a3565b60405161024a9190612240565b60405180910390f35b34801561025f57600080fd5b5061027a60048036038101906102759190611c80565b6112c0565b005b34801561028857600080fd5b506102a3600480360381019061029e9190611c80565b611436565b005b3480156102b157600080fd5b506102cc60048036038101906102c79190611c80565b611577565b005b6102d6611660565b005b3480156102e457600080fd5b506102ed61166f565b6040516102fa91906123f0565b60405180910390f35b34801561030f57600080fd5b5061032a60048036038101906103259190611c80565b611a49565b005b600047905090565b60008054906101000a900473ffffffffffffffffffffffffffffffffffffffff1673ffffffffffffffffffffffffffffffffffffffff163373ffffffffffffffffffffffffffffffffffffffff16146103c2576040517f08c379a00000000000000000000000000000000000000000000000000000000081526004016103b99061246f565b60405180910390fd5b600260008273ffffffffffffffffffffffffffffffffffffffff1673ffffffffffffffffffffffffffffffffffffffff16815260200190815260200160002060009054906101000a900460ff161561044f576040517f08c379a0000000000000000000000000000000000000000000000000000000008152600401610446906124db565b60405180910390fd5b60018060008373ffffffffffffffffffffffffffffffffffffffff1673ffffffffffffffffffffffffffffffffffffffff16815260200190815260200160002060006101000a81548160ff02191690831515021790555050565b60008054906101000a900473ffffffffffffffffffffffffffffffffffffffff1673ffffffffffffffffffffffffffffffffffffffff163373ffffffffffffffffffffffffffffffffffffffff1614610537576040517f08c379a000000000000000000000000000000000000000000000000000000000815260040161052e9061246f565b60405180910390fd5b3373ffffffffffffffffffffffffffffffffffffffff166108fc479081150290604051600060405180830381858888f1935050505015801561057d573d6000803e3d6000fd5b50565b6000600260003373ffffffffffffffffffffffffffffffffffffffff1673ffffffffffffffffffffffffffffffffffffffff16815260200190815260200160002060009054906101000a900460ff1661060e576040517f08c379a000000000000000000000000000000000000000000000000000000000815260040161060590612547565b60405180910390fd5b60056000848152602001908152602001600020600801548214610666576040517f08c379a000000000000000000000000000000000000000000000000000000000815260040161065d906125b3565b60405180910390fd5b6000600560008581526020019081526020016000206005015414806106a1575060016005600085815260200190815260200160002060050154145b6106e0576040517f08c379a00000000000000000000000000000000000000000000000000000000081526004016106d7906125b3565b60405180910390fd5b6040518060400160405280600981526020017f44656c697665726564000000000000000000000000000000000000000000000081525060056000858152602001908152602001600020600601908161073891906127df565b5060026005600085815260200190815260200160002060050181905550600061078d60056000868152602001908152602001600020600401546005600087815260200190815260200160002060070154611b32565b9050600081146108485760006005600086815260200190815260200160002060010160009054906101000a900473ffffffffffffffffffffffffffffffffffffffff1673ffffffffffffffffffffffffffffffffffffffff166108fc839081150290604051600060405180830381858888f19350505050905080610846576040517f08c379a000000000000000000000000000000000000000000000000000000000815260040161083d906128fd565b60405180910390fd5b505b7f8255d6dfcced46d6a7e508bca180194cfce251becf9f784a513347db1b663c3d6005600086815260200190815260200160002060010160009054906101000a900473ffffffffffffffffffffffffffffffffffffffff16856040516108af92919061292c565b60405180910390a14291505092915050565b6000600160003373ffffffffffffffffffffffffffffffffffffffff1673ffffffffffffffffffffffffffffffffffffffff16815260200190815260200160002060009054906101000a900460ff1661094f576040517f08c379a0000000000000000000000000000000000000000000000000000000008152600401610946906129a1565b60405180910390fd5b600260008673ffffffffffffffffffffffffffffffffffffffff1673ffffffffffffffffffffffffffffffffffffffff16815260200190815260200160002060009054906101000a900460ff161580156109f35750600160008673ffffffffffffffffffffffffffffffffffffffff1673ffffffffffffffffffffffffffffffffffffffff16815260200190815260200160002060009054906101000a900460ff16155b610a32576040517f08c379a0000000000000000000000000000000000000000000000000000000008152600401610a2990612a0d565b60405180910390fd5b428411610a74576040517f08c379a0000000000000000000000000000000000000000000000000000000008152600401610a6b90612a79565b60405180910390fd5b600060405180610120016040528060035481526020018773ffffffffffffffffffffffffffffffffffffffff168152602001898152602001888152602001868152602001600081526020016040518060400160405280600a81526020017f44697370617463686564000000000000000000000000000000000000000000008152508152602001858152602001848152509050600460008773ffffffffffffffffffffffffffffffffffffffff1673ffffffffffffffffffffffffffffffffffffffff1681526020019081526020016000206003549080600181540180825580915050600190039060005260206000200160009091909190915055806005600060035481526020019081526020016000206000820151816000015560208201518160010160006101000a81548173ffffffffffffffffffffffffffffffffffffffff021916908373ffffffffffffffffffffffffffffffffffffffff1602179055506040820151816002019081610bea91906127df565b506060820151816003019081610c0091906127df565b506080820151816004015560a0820151816005015560c0820151816006019081610c2a91906127df565b5060e0820151816007015561010082015181600801559050507fb363a11fd2ce04922432ab8bd929997078001c462648590a38165aeed22267ac86600354604051610c7692919061292c565b60405180910390a160036000815480929190610c9190612ac8565b91905055506001600354610ca59190612b10565b9150509695505050505050565b600260003373ffffffffffffffffffffffffffffffffffffffff1673ffffffffffffffffffffffffffffffffffffffff16815260200190815260200160002060009054906101000a900460ff16610d3e576040517f08c379a0000000000000000000000000000000000000000000000000000000008152600401610d3590612547565b60405180910390fd5b60005b8251811015610ea6576000838281518110610d5f57610d5e612b44565b5b60200260200101519050600060056000838152602001908152602001600020600501541480610da4575060016005600083815260200190815260200160002060050154145b610de3576040517f08c379a0000000000000000000000000000000000000000000000000000000008152600401610dda90612bbf565b60405180910390fd5b82600560008381526020019081526020016000206006019081610e0691906127df565b50600160056000838152602001908152602001600020600501819055507f9438058ebf1a86275250666dd099fc40e8d34ed2cfed81c8037d1da3bc515eb66005600083815260200190815260200160002060010160009054906101000a900473ffffffffffffffffffffffffffffffffffffffff1682604051610e8a92919061292c565b60405180910390a1508080610e9e90612ac8565b915050610d41565b505050565b610eb3611b78565b600160003373ffffffffffffffffffffffffffffffffffffffff1673ffffffffffffffffffffffffffffffffffffffff16815260200190815260200160002060009054906101000a900460ff16610f3f576040517f08c379a0000000000000000000000000000000000000000000000000000000008152600401610f36906129a1565b60405180910390fd5b6005600083815260200190815260200160002060405180610120016040529081600082015481526020016001820160009054906101000a900473ffffffffffffffffffffffffffffffffffffffff1673ffffffffffffffffffffffffffffffffffffffff1673ffffffffffffffffffffffffffffffffffffffff168152602001600282018054610fce90612602565b80601f0160208091040260200160405190810160405280929190818152602001828054610ffa90612602565b80156110475780601f1061101c57610100808354040283529160200191611047565b820191906000526020600020905b81548152906001019060200180831161102a57829003601f168201915b5050505050815260200160038201805461106090612602565b80601f016020809104026020016040519081016040528092919081815260200182805461108c90612602565b80156110d95780601f106110ae576101008083540402835291602001916110d9565b820191906000526020600020905b8154815290600101906020018083116110bc57829003601f168201915b50505050508152602001600482015481526020016005820154815260200160068201805461110690612602565b80601f016020809104026020016040519081016040528092919081815260200182805461113290612602565b801561117f5780601f106111545761010080835404028352916020019161117f565b820191906000526020600020905b81548152906001019060200180831161116257829003601f168201915b50505050508152602001600782015481526020016008820154815250509050919050565b6000600260003373ffffffffffffffffffffffffffffffffffffffff1673ffffffffffffffffffffffffffffffffffffffff16815260200190815260200160002060009054906101000a900460ff161561120057600190506112bd565b600160003373ffffffffffffffffffffffffffffffffffffffff1673ffffffffffffffffffffffffffffffffffffffff16815260200190815260200160002060009054906101000a900460ff161561125b57600090506112bd565b60008054906101000a900473ffffffffffffffffffffffffffffffffffffffff1673ffffffffffffffffffffffffffffffffffffffff163373ffffffffffffffffffffffffffffffffffffffff16036112b8576103e790506112bd565b600290505b90565b60008054906101000a900473ffffffffffffffffffffffffffffffffffffffff1673ffffffffffffffffffffffffffffffffffffffff163373ffffffffffffffffffffffffffffffffffffffff161461134e576040517f08c379a00000000000000000000000000000000000000000000000000000000081526004016113459061246f565b60405180910390fd5b600160008273ffffffffffffffffffffffffffffffffffffffff1673ffffffffffffffffffffffffffffffffffffffff16815260200190815260200160002060009054906101000a900460ff16156113db576040517f08c379a00000000000000000000000000000000000000000000000000000000081526004016113d290612c2b565b60405180910390fd5b6001600260008373ffffffffffffffffffffffffffffffffffffffff1673ffffffffffffffffffffffffffffffffffffffff16815260200190815260200160002060006101000a81548160ff02191690831515021790555050565b60008054906101000a900473ffffffffffffffffffffffffffffffffffffffff1673ffffffffffffffffffffffffffffffffffffffff163373ffffffffffffffffffffffffffffffffffffffff16146114c4576040517f08c379a00000000000000000000000000000000000000000000000000000000081526004016114bb9061246f565b60405180910390fd5b6000600260008373ffffffffffffffffffffffffffffffffffffffff1673ffffffffffffffffffffffffffffffffffffffff16815260200190815260200160002060006101000a81548160ff0219169083151502179055506000600160008373ffffffffffffffffffffffffffffffffffffffff1673ffffffffffffffffffffffffffffffffffffffff16815260200190815260200160002060006101000a81548160ff02191690831515021790555050565b60008054906101000a900473ffffffffffffffffffffffffffffffffffffffff1673ffffffffffffffffffffffffffffffffffffffff163373ffffffffffffffffffffffffffffffffffffffff1614611605576040517f08c379a00000000000000000000000000000000000000000000000000000000081526004016115fc9061246f565b60405180910390fd5b6000600160008373ffffffffffffffffffffffffffffffffffffffff1673ffffffffffffffffffffffffffffffffffffffff16815260200190815260200160002060006101000a81548160ff02191690831515021790555050565b6000340361166d57600080fd5b565b60606000600460003373ffffffffffffffffffffffffffffffffffffffff1673ffffffffffffffffffffffffffffffffffffffff1681526020019081526020016000208054905067ffffffffffffffff8111156116cf576116ce611d34565b5b60405190808252806020026020018201604052801561170857816020015b6116f5611b78565b8152602001906001900390816116ed5790505b50905060005b600460003373ffffffffffffffffffffffffffffffffffffffff1673ffffffffffffffffffffffffffffffffffffffff16815260200190815260200160002080549050811015611a415760056000600460003373ffffffffffffffffffffffffffffffffffffffff1673ffffffffffffffffffffffffffffffffffffffff16815260200190815260200160002083815481106117ad576117ac612b44565b5b9060005260206000200154815260200190815260200160002060405180610120016040529081600082015481526020016001820160009054906101000a900473ffffffffffffffffffffffffffffffffffffffff1673ffffffffffffffffffffffffffffffffffffffff1673ffffffffffffffffffffffffffffffffffffffff16815260200160028201805461184290612602565b80601f016020809104026020016040519081016040528092919081815260200182805461186e90612602565b80156118bb5780601f10611890576101008083540402835291602001916118bb565b820191906000526020600020905b81548152906001019060200180831161189e57829003601f168201915b505050505081526020016003820180546118d490612602565b80601f016020809104026020016040519081016040528092919081815260200182805461190090612602565b801561194d5780601f106119225761010080835404028352916020019161194d565b820191906000526020600020905b81548152906001019060200180831161193057829003601f168201915b50505050508152602001600482015481526020016005820154815260200160068201805461197a90612602565b80601f01602080910402602001604051908101604052809291908181526020018280546119a690612602565b80156119f35780601f106119c8576101008083540402835291602001916119f3565b820191906000526020600020905b8154815290600101906020018083116119d657829003601f168201915b5050505050815260200160078201548152602001600882015481525050828281518110611a2357611a22612b44565b5b60200260200101819052508080611a3990612ac8565b91505061170e565b508091505090565b60008054906101000a900473ffffffffffffffffffffffffffffffffffffffff1673ffffffffffffffffffffffffffffffffffffffff163373ffffffffffffffffffffffffffffffffffffffff1614611ad7576040517f08c379a0000000000000000000000000000000000000000000000000000000008152600401611ace9061246f565b60405180910390fd5b6000600260008373ffffffffffffffffffffffffffffffffffffffff1673ffffffffffffffffffffffffffffffffffffffff16815260200190815260200160002060006101000a81548160ff02191690831515021790555050565b6000428310611b445760009050611b72565b6000620151808442611b569190612b10565b611b609190612c7a565b90508281611b6e9190612cab565b9150505b92915050565b60405180610120016040528060008152602001600073ffffffffffffffffffffffffffffffffffffffff168152602001606081526020016060815260200160008152602001600081526020016060815260200160008152602001600081525090565b6000819050919050565b611bed81611bda565b82525050565b6000602082019050611c086000830184611be4565b92915050565b6000604051905090565b600080fd5b600080fd5b600073ffffffffffffffffffffffffffffffffffffffff82169050919050565b6000611c4d82611c22565b9050919050565b611c5d81611c42565b8114611c6857600080fd5b50565b600081359050611c7a81611c54565b92915050565b600060208284031215611c9657611c95611c18565b5b6000611ca484828501611c6b565b91505092915050565b611cb681611bda565b8114611cc157600080fd5b50565b600081359050611cd381611cad565b92915050565b60008060408385031215611cf057611cef611c18565b5b6000611cfe85828601611cc4565b9250506020611d0f85828601611cc4565b9150509250929050565b600080fd5b600080fd5b6000601f19601f8301169050919050565b7f4e487b7100000000000000000000000000000000000000000000000000000000600052604160045260246000fd5b611d6c82611d23565b810181811067ffffffffffffffff82111715611d8b57611d8a611d34565b5b80604052505050565b6000611d9e611c0e565b9050611daa8282611d63565b919050565b600067ffffffffffffffff821115611dca57611dc9611d34565b5b611dd382611d23565b9050602081019050919050565b82818337600083830152505050565b6000611e02611dfd84611daf565b611d94565b905082815260208101848484011115611e1e57611e1d611d1e565b5b611e29848285611de0565b509392505050565b600082601f830112611e4657611e45611d19565b5b8135611e56848260208601611def565b91505092915050565b60008060008060008060c08789031215611e7c57611e7b611c18565b5b600087013567ffffffffffffffff811115611e9a57611e99611c1d565b5b611ea689828a01611e31565b965050602087013567ffffffffffffffff811115611ec757611ec6611c1d565b5b611ed389828a01611e31565b9550506040611ee489828a01611c6b565b9450506060611ef589828a01611cc4565b9350506080611f0689828a01611cc4565b92505060a0611f1789828a01611cc4565b9150509295509295509295565b600067ffffffffffffffff821115611f3f57611f3e611d34565b5b602082029050602081019050919050565b600080fd5b6000611f68611f6384611f24565b611d94565b90508083825260208201905060208402830185811115611f8b57611f8a611f50565b5b835b81811015611fb45780611fa08882611cc4565b845260208401935050602081019050611f8d565b5050509392505050565b600082601f830112611fd357611fd2611d19565b5b8135611fe3848260208601611f55565b91505092915050565b6000806040838503121561200357612002611c18565b5b600083013567ffffffffffffffff81111561202157612020611c1d565b5b61202d85828601611fbe565b925050602083013567ffffffffffffffff81111561204e5761204d611c1d565b5b61205a85828601611e31565b9150509250929050565b60006020828403121561207a57612079611c18565b5b600061208884828501611cc4565b91505092915050565b61209a81611bda565b82525050565b6120a981611c42565b82525050565b600081519050919050565b600082825260208201905092915050565b60005b838110156120e95780820151818401526020810190506120ce565b60008484015250505050565b6000612100826120af565b61210a81856120ba565b935061211a8185602086016120cb565b61212381611d23565b840191505092915050565b6000610120830160008301516121476000860182612091565b50602083015161215a60208601826120a0565b506040830151848203604086015261217282826120f5565b9150506060830151848203606086015261218c82826120f5565b91505060808301516121a16080860182612091565b5060a08301516121b460a0860182612091565b5060c083015184820360c08601526121cc82826120f5565b91505060e08301516121e160e0860182612091565b506101008301516121f6610100860182612091565b508091505092915050565b6000602082019050818103600083015261221b818461212e565b905092915050565b600061ffff82169050919050565b61223a81612223565b82525050565b60006020820190506122556000830184612231565b92915050565b600081519050919050565b600082825260208201905092915050565b6000819050602082019050919050565b6000610120830160008301516122a06000860182612091565b5060208301516122b360208601826120a0565b50604083015184820360408601526122cb82826120f5565b915050606083015184820360608601526122e582826120f5565b91505060808301516122fa6080860182612091565b5060a083015161230d60a0860182612091565b5060c083015184820360c086015261232582826120f5565b91505060e083015161233a60e0860182612091565b5061010083015161234f610100860182612091565b508091505092915050565b60006123668383612287565b905092915050565b6000602082019050919050565b60006123868261225b565b6123908185612266565b9350836020820285016123a285612277565b8060005b858110156123de57848403895281516123bf858261235a565b94506123ca8361236e565b925060208a019950506001810190506123a6565b50829750879550505050505092915050565b6000602082019050818103600083015261240a818461237b565b905092915050565b600082825260208201905092915050565b7f4e6f7420746865206f776e657200000000000000000000000000000000000000600082015250565b6000612459600d83612412565b915061246482612423565b602082019050919050565b600060208201905081810360008301526124888161244c565b9050919050565b7f506172746e65722063616e277420626520612073686970706572000000000000600082015250565b60006124c5601a83612412565b91506124d08261248f565b602082019050919050565b600060208201905081810360008301526124f4816124b8565b9050919050565b7f4e6f74206120706172746e657200000000000000000000000000000000000000600082015250565b6000612531600d83612412565b915061253c826124fb565b602082019050919050565b6000602082019050818103600083015261256081612524565b9050919050565b7f496e76616c696400000000000000000000000000000000000000000000000000600082015250565b600061259d600783612412565b91506125a882612567565b602082019050919050565b600060208201905081810360008301526125cc81612590565b9050919050565b7f4e487b7100000000000000000000000000000000000000000000000000000000600052602260045260246000fd5b6000600282049050600182168061261a57607f821691505b60208210810361262d5761262c6125d3565b5b50919050565b60008190508160005260206000209050919050565b60006020601f8301049050919050565b600082821b905092915050565b6000600883026126957fffffffffffffffffffffffffffffffffffffffffffffffffffffffffffffffff82612658565b61269f8683612658565b95508019841693508086168417925050509392505050565b6000819050919050565b60006126dc6126d76126d284611bda565b6126b7565b611bda565b9050919050565b6000819050919050565b6126f6836126c1565b61270a612702826126e3565b848454612665565b825550505050565b600090565b61271f612712565b61272a8184846126ed565b505050565b5b8181101561274e57612743600082612717565b600181019050612730565b5050565b601f8211156127935761276481612633565b61276d84612648565b8101602085101561277c578190505b61279061278885612648565b83018261272f565b50505b505050565b600082821c905092915050565b60006127b660001984600802612798565b1980831691505092915050565b60006127cf83836127a5565b9150826002028217905092915050565b6127e8826120af565b67ffffffffffffffff81111561280157612800611d34565b5b61280b8254612602565b612816828285612752565b600060209050601f8311600181146128495760008415612837578287015190505b61284185826127c3565b8655506128a9565b601f19841661285786612633565b60005b8281101561287f5784890151825560018201915060208501945060208101905061285a565b8683101561289c5784890151612898601f8916826127a5565b8355505b6001600288020188555050505b505050505050565b7f4661696c656420746f20636f6d70656e73617465000000000000000000000000600082015250565b60006128e7601483612412565b91506128f2826128b1565b602082019050919050565b60006020820190508181036000830152612916816128da565b9050919050565b61292681611c42565b82525050565b6000604082019050612941600083018561291d565b61294e6020830184611be4565b9392505050565b7f4e6f742061207368697070657200000000000000000000000000000000000000600082015250565b600061298b600d83612412565b915061299682612955565b602082019050919050565b600060208201905081810360008301526129ba8161297e565b9050919050565b7f496e76616c696420616464726573730000000000000000000000000000000000600082015250565b60006129f7600f83612412565b9150612a02826129c1565b602082019050919050565b60006020820190508181036000830152612a26816129ea565b9050919050565b7f496e76616c696420617267756d656e7473000000000000000000000000000000600082015250565b6000612a63601183612412565b9150612a6e82612a2d565b602082019050919050565b60006020820190508181036000830152612a9281612a56565b9050919050565b7f4e487b7100000000000000000000000000000000000000000000000000000000600052601160045260246000fd5b6000612ad382611bda565b91507fffffffffffffffffffffffffffffffffffffffffffffffffffffffffffffffff8203612b0557612b04612a99565b5b600182019050919050565b6000612b1b82611bda565b9150612b2683611bda565b9250828203905081811115612b3e57612b3d612a99565b5b92915050565b7f4e487b7100000000000000000000000000000000000000000000000000000000600052603260045260246000fd5b7f43616e277420557064617465206c6f636174696f6e0000000000000000000000600082015250565b6000612ba9601583612412565b9150612bb482612b73565b602082019050919050565b60006020820190508181036000830152612bd881612b9c565b9050919050565b7f536869707065722063616e2774206265206120706172746e6572000000000000600082015250565b6000612c15601a83612412565b9150612c2082612bdf565b602082019050919050565b60006020820190508181036000830152612c4481612c08565b9050919050565b7f4e487b7100000000000000000000000000000000000000000000000000000000600052601260045260246000fd5b6000612c8582611bda565b9150612c9083611bda565b925082612ca057612c9f612c4b565b5b828204905092915050565b6000612cb682611bda565b9150612cc183611bda565b9250828202612ccf81611bda565b91508282048414831517612ce657612ce5612a99565b5b509291505056fea2646970667358221220e2793efb90071ce899b58ffe946e0b588515b9283050586f1aca0bfa5efb91e764736f6c63430008120033",
  "immutableReferences": {},
  "source": "// SPDX-License-Identifier: GPL-3.0-only\r\n// Author:- @sauravrao637\r\npragma solidity ^0.8.10;\r\n\r\ncontract CamoParcel{\r\n    address owner;\r\n    mapping(address => bool) authorisedShippers;\r\n    mapping(address => bool) authorisedPartners;\r\n\r\n    modifier onlyOwner() {\r\n        require(msg.sender == owner, \"Not the owner\");\r\n        _;\r\n    }\r\n\r\n    modifier onlyShipper(){\r\n        require(authorisedShippers[msg.sender], \"Not a shipper\");\r\n        _;\r\n    }\r\n\r\n    modifier onlyPartner(){\r\n        require(authorisedPartners[msg.sender], \"Not a partner\");\r\n        _;\r\n    }\r\n    constructor(){\r\n        owner = msg.sender;\r\n    }\r\n    event ParcelShippedEvent(address, uint);\r\n    event ParcelLocationUpdated(address, uint);\r\n    event ParcelDelivered(address, uint);\r\n\r\n    uint parcelId = 0;\r\n    struct Parcel{\r\n        uint id;\r\n        address receiver;\r\n        string itemName;\r\n        string itemDesc;\r\n        uint expectedDelivery;\r\n        uint status; //dispatched->0, inTransit -> 1, delivered -> 2, failed ->3\r\n        string currentLocation;\r\n        uint baseCompensation;\r\n        uint otp;\r\n    }\r\n\r\n    mapping(address => uint[]) userParcels;\r\n    mapping(uint => Parcel) parcels;\r\n\r\n    function addShipper(address shipper) public onlyOwner{\r\n        require(!authorisedPartners[shipper], \"Partner can't be a shipper\");\r\n        authorisedShippers[shipper] = true;\r\n    }\r\n\r\n    function removeAssociate(address user) public onlyOwner(){\r\n        authorisedPartners[user] = false;\r\n        authorisedShippers[user] = false;\r\n    }\r\n\r\n    function removeShipper(address shipper) public onlyOwner{\r\n        authorisedShippers[shipper] = false;\r\n    }\r\n\r\n    function addPartner(address partner) public onlyOwner{\r\n        require(!authorisedShippers[partner], \"Shipper can't be a partner\");\r\n        authorisedPartners[partner] = true;\r\n    }\r\n\r\n    function removePartner(address partner) public onlyOwner{\r\n        authorisedPartners[partner] = false;\r\n    }\r\n\r\n    function shipOrder(string memory itemName, string memory itemDesc, address userAddress, uint expectedDelivery, uint baseCompensation, uint otp) public onlyShipper returns(uint){\r\n        require(!authorisedPartners[userAddress] && !authorisedShippers[userAddress], \"Invalid address\");\r\n        require(expectedDelivery> block.timestamp, \"Invalid arguments\");\r\n\r\n        Parcel memory parcel = Parcel(\r\n            parcelId,\r\n            userAddress,\r\n            itemName,\r\n            itemDesc,\r\n            expectedDelivery,\r\n            0,\r\n            \"Dispatched\",\r\n            baseCompensation,\r\n            otp\r\n        );\r\n        \r\n        userParcels[userAddress].push(parcelId);\r\n        parcels[parcelId] = parcel;\r\n        \r\n        emit ParcelShippedEvent(userAddress, parcelId);\r\n\r\n        parcelId++;\r\n        return parcelId-1;\r\n    }\r\n\r\n    function updateLocation(uint[] memory pIds, string memory location) public onlyPartner{\r\n        for(uint i=0;i<pIds.length;i++){\r\n            uint pId = pIds[i];    \r\n            require(parcels[pId].status == 0 || parcels[pId].status ==1, \"Can't Update location\");\r\n            parcels[pId].currentLocation = location;\r\n            parcels[pId].status = 1;\r\n            emit ParcelLocationUpdated(parcels[pId].receiver, pId);\r\n        }\r\n    }\r\n\r\n    function calcCompensation(uint expectedDelivery, uint baseCompensation) private view returns(uint){\r\n        if(expectedDelivery >= block.timestamp) return 0;\r\n        uint difDays = (block.timestamp - expectedDelivery)/(1 days);\r\n        return difDays*baseCompensation;\r\n    }\r\n\r\n    function markParcelDelivered(uint pId, uint otp) public onlyPartner returns(uint256) {\r\n        require(otp == parcels[pId].otp, \"Invalid\");\r\n        require(parcels[pId].status == 0 || parcels[pId].status == 1,\"Invalid\");\r\n        parcels[pId].currentLocation = \"Delivered\";\r\n\t\tparcels[pId].status = 2;\r\n\t\tuint compensation = calcCompensation(parcels[pId].expectedDelivery, parcels[pId].baseCompensation);\r\n\t\tif(compensation !=0){\r\n\t\t\tbool sent = payable(parcels[pId].receiver).send(compensation);\r\n\t\t\trequire(sent, \"Failed to compensate\");\r\n\t\t}\r\n\t\temit ParcelDelivered(parcels[pId].receiver, pId);\r\n\t\treturn block.timestamp;\r\n    }\r\n\r\n    function viewMyParcels() public view returns (Parcel[] memory) {\r\n        Parcel[] memory myParcels = new Parcel[](userParcels[msg.sender].length);\r\n        for(uint i=0;i< userParcels[msg.sender].length;i++){\r\n            myParcels[i] = parcels[userParcels[msg.sender][i]];\r\n        }\r\n        return myParcels;\r\n    }\r\n\r\n    function viewparcel(uint pId) public view onlyShipper returns(Parcel memory){\r\n        return parcels[pId];\r\n    }\r\n\r\n    function withdrawFunds() public payable onlyOwner{\r\n        payable(msg.sender).transfer(address(this).balance);\r\n    }\r\n\r\n    receive() external payable {}\r\n    fallback() external payable {}\r\n\r\n    function getBalance() public view returns (uint) {\r\n        return address(this).balance;\r\n    }\r\n\r\n    function fund() public payable{\r\n        require(msg.value!=0);\r\n    }\r\n\r\n    function getMyType() public view returns (uint16){\r\n        if (authorisedPartners[msg.sender]) return 1;\r\n        if(authorisedShippers[msg.sender])  return 0;\r\n        if(msg.sender == owner) return 999;\r\n        return 2;\r\n    }\r\n}\r\n",
  "sourcePath": "C:\\Users\\asus\\Desktop\\Project\\ParcelPledge\\blockchain\\contracts\\CamoParcel.sol",
  "compiler": {
    "name": "solc",
    "version": "0.8.18+commit.87f61d96.Emscripten.clang"
  },
  "schemaVersion": "3.4.14",
  "updatedAt": "2023-07-13T02:21:16.114Z",
  "devdoc": {
    "kind": "dev",
    "methods": {},
    "version": 1
  },
  "userdoc": {
    "kind": "user",
    "methods": {},
    "version": 1
  }
}