{
  "contractName": "CamoParcel",
  "abi": [
    {
      "inputs": [],
      "stateMutability": "nonpayable",
      "type": "constructor"
    },
    {
      "anonymous": false,
      "inputs": [
        {
          "indexed": false,
          "internalType": "uint256",
          "name": "",
          "type": "uint256"
        }
      ],
      "name": "ParcelDelivered",
      "type": "event"
    },
    {
      "anonymous": false,
      "inputs": [
        {
          "indexed": false,
          "internalType": "uint256",
          "name": "",
          "type": "uint256"
        }
      ],
      "name": "ParcelLocationUpdated",
      "type": "event"
    },
    {
      "anonymous": false,
      "inputs": [
        {
          "indexed": false,
          "internalType": "address",
          "name": "",
          "type": "address"
        },
        {
          "indexed": false,
          "internalType": "uint256",
          "name": "",
          "type": "uint256"
        }
      ],
      "name": "ParcelShippedEvent",
      "type": "event"
    },
    {
      "stateMutability": "payable",
      "type": "fallback",
      "payable": true
    },
    {
      "stateMutability": "payable",
      "type": "receive",
      "payable": true
    },
    {
      "inputs": [
        {
          "internalType": "address",
          "name": "shipper",
          "type": "address"
        }
      ],
      "name": "addShipper",
      "outputs": [],
      "stateMutability": "nonpayable",
      "type": "function"
    },
    {
      "inputs": [
        {
          "internalType": "address",
          "name": "shipper",
          "type": "address"
        }
      ],
      "name": "removeShipper",
      "outputs": [],
      "stateMutability": "nonpayable",
      "type": "function"
    },
    {
      "inputs": [
        {
          "internalType": "address",
          "name": "partner",
          "type": "address"
        }
      ],
      "name": "addPartner",
      "outputs": [],
      "stateMutability": "nonpayable",
      "type": "function"
    },
    {
      "inputs": [
        {
          "internalType": "address",
          "name": "partner",
          "type": "address"
        }
      ],
      "name": "removePartner",
      "outputs": [],
      "stateMutability": "nonpayable",
      "type": "function"
    },
    {
      "inputs": [
        {
          "internalType": "string",
          "name": "itemName",
          "type": "string"
        },
        {
          "internalType": "string",
          "name": "itemDesc",
          "type": "string"
        },
        {
          "internalType": "address",
          "name": "userAddress",
          "type": "address"
        },
        {
          "internalType": "uint256",
          "name": "expectedDelivery",
          "type": "uint256"
        },
        {
          "internalType": "uint256",
          "name": "baseCompensation",
          "type": "uint256"
        },
        {
          "internalType": "uint256",
          "name": "otp",
          "type": "uint256"
        }
      ],
      "name": "shipOrder",
      "outputs": [],
      "stateMutability": "nonpayable",
      "type": "function"
    },
    {
      "inputs": [
        {
          "internalType": "uint256[]",
          "name": "pIds",
          "type": "uint256[]"
        },
        {
          "internalType": "string",
          "name": "location",
          "type": "string"
        }
      ],
      "name": "updateLocation",
      "outputs": [],
      "stateMutability": "nonpayable",
      "type": "function"
    },
    {
      "inputs": [
        {
          "internalType": "uint256",
          "name": "pId",
          "type": "uint256"
        },
        {
          "internalType": "uint256",
          "name": "otp",
          "type": "uint256"
        }
      ],
      "name": "markParcelReceived",
      "outputs": [
        {
          "internalType": "uint256",
          "name": "",
          "type": "uint256"
        }
      ],
      "stateMutability": "nonpayable",
      "type": "function"
    },
    {
      "inputs": [],
      "name": "viewMyParcels",
      "outputs": [
        {
          "components": [
            {
              "internalType": "uint256",
              "name": "id",
              "type": "uint256"
            },
            {
              "internalType": "string",
              "name": "itemName",
              "type": "string"
            },
            {
              "internalType": "string",
              "name": "itemDesc",
              "type": "string"
            },
            {
              "internalType": "uint256",
              "name": "expectedDelivery",
              "type": "uint256"
            },
            {
              "internalType": "uint256",
              "name": "status",
              "type": "uint256"
            },
            {
              "internalType": "string",
              "name": "currentLocation",
              "type": "string"
            },
            {
              "internalType": "uint256",
              "name": "baseCompensation",
              "type": "uint256"
            },
            {
              "internalType": "uint256",
              "name": "otp",
              "type": "uint256"
            }
          ],
          "internalType": "struct CamoParcel.Parcel[]",
          "name": "",
          "type": "tuple[]"
        }
      ],
      "stateMutability": "view",
      "type": "function",
      "constant": true
    },
    {
      "inputs": [
        {
          "internalType": "uint256",
          "name": "pId",
          "type": "uint256"
        }
      ],
      "name": "viewparcel",
      "outputs": [
        {
          "components": [
            {
              "internalType": "uint256",
              "name": "id",
              "type": "uint256"
            },
            {
              "internalType": "string",
              "name": "itemName",
              "type": "string"
            },
            {
              "internalType": "string",
              "name": "itemDesc",
              "type": "string"
            },
            {
              "internalType": "uint256",
              "name": "expectedDelivery",
              "type": "uint256"
            },
            {
              "internalType": "uint256",
              "name": "status",
              "type": "uint256"
            },
            {
              "internalType": "string",
              "name": "currentLocation",
              "type": "string"
            },
            {
              "internalType": "uint256",
              "name": "baseCompensation",
              "type": "uint256"
            },
            {
              "internalType": "uint256",
              "name": "otp",
              "type": "uint256"
            }
          ],
          "internalType": "struct CamoParcel.Parcel",
          "name": "",
          "type": "tuple"
        }
      ],
      "stateMutability": "view",
      "type": "function",
      "constant": true
    },
    {
      "inputs": [],
      "name": "withdrawFunds",
      "outputs": [],
      "stateMutability": "payable",
      "type": "function",
      "payable": true
    },
    {
      "inputs": [],
      "name": "getBalance",
      "outputs": [
        {
          "internalType": "uint256",
          "name": "",
          "type": "uint256"
        }
      ],
      "stateMutability": "view",
      "type": "function",
      "constant": true
    },
    {
      "inputs": [],
      "name": "fund",
      "outputs": [],
      "stateMutability": "payable",
      "type": "function",
      "payable": true
    }
  ],
  "bytecode": "0x6080604052600060035534801561001557600080fd5b50336000806101000a81548173ffffffffffffffffffffffffffffffffffffffff021916908373ffffffffffffffffffffffffffffffffffffffff1602179055506124cf806100656000396000f3fe6080604052600436106100ab5760003560e01c80634e15e4f5116100645780634e15e4f5146101a15780638bf34237146101de578063b27f307014610207578063b60d428814610230578063c0031b9b1461023a578063ea3c281a14610265576100b2565b806312065fe0146100b4578063155a7646146100df57806324600fc314610108578063406c05ae14610112578063454619491461013b5780634b390e8014610164576100b2565b366100b257005b005b3480156100c057600080fd5b506100c961028e565b6040516100d69190611554565b60405180910390f35b3480156100eb57600080fd5b50610106600480360381019061010191906115e1565b610296565b005b61011061037e565b005b34801561011e57600080fd5b5061013960048036038101906101349190611780565b610455565b005b34801561014757600080fd5b50610162600480360381019061015d919061190d565b6106ea565b005b34801561017057600080fd5b5061018b60048036038101906101869190611985565b6108ab565b6040516101989190611554565b60405180910390f35b3480156101ad57600080fd5b506101c860048036038101906101c391906119c5565b610bc0565b6040516101d59190611b3e565b60405180910390f35b3480156101ea57600080fd5b50610205600480360381019061020091906115e1565b610e62565b005b34801561021357600080fd5b5061022e600480360381019061022991906115e1565b610f4b565b005b610238611034565b005b34801561024657600080fd5b5061024f611043565b60405161025c9190611ce0565b60405180910390f35b34801561027157600080fd5b5061028c600480360381019061028791906115e1565b6113c7565b005b600047905090565b60008054906101000a900473ffffffffffffffffffffffffffffffffffffffff1673ffffffffffffffffffffffffffffffffffffffff163373ffffffffffffffffffffffffffffffffffffffff1614610324576040517f08c379a000000000000000000000000000000000000000000000000000000000815260040161031b90611d5f565b60405180910390fd5b60018060008373ffffffffffffffffffffffffffffffffffffffff1673ffffffffffffffffffffffffffffffffffffffff16815260200190815260200160002060006101000a81548160ff02191690831515021790555050565b60008054906101000a900473ffffffffffffffffffffffffffffffffffffffff1673ffffffffffffffffffffffffffffffffffffffff163373ffffffffffffffffffffffffffffffffffffffff161461040c576040517f08c379a000000000000000000000000000000000000000000000000000000000815260040161040390611d5f565b60405180910390fd5b3373ffffffffffffffffffffffffffffffffffffffff166108fc479081150290604051600060405180830381858888f19350505050158015610452573d6000803e3d6000fd5b50565b600160003373ffffffffffffffffffffffffffffffffffffffff1673ffffffffffffffffffffffffffffffffffffffff16815260200190815260200160002060009054906101000a900460ff166104e1576040517f08c379a00000000000000000000000000000000000000000000000000000000081526004016104d890611dcb565b60405180910390fd5b428311610523576040517f08c379a000000000000000000000000000000000000000000000000000000000815260040161051a90611e37565b60405180910390fd5b60006040518061010001604052806003548152602001888152602001878152602001858152602001600081526020016040518060400160405280600a81526020017f44697370617463686564000000000000000000000000000000000000000000008152508152602001848152602001838152509050600460008673ffffffffffffffffffffffffffffffffffffffff1673ffffffffffffffffffffffffffffffffffffffff1681526020019081526020016000206003549080600181540180825580915050600190039060005260206000200160009091909190915055806005600060035481526020019081526020016000206000820151816000015560208201518160010190816106369190612063565b50604082015181600201908161064c9190612063565b50606082015181600301556080820151816004015560a08201518160050190816106769190612063565b5060c0820151816006015560e082015181600701559050507fb363a11fd2ce04922432ab8bd929997078001c462648590a38165aeed22267ac856003546040516106c1929190612144565b60405180910390a1600360008154809291906106dc9061219c565b919050555050505050505050565b600260003373ffffffffffffffffffffffffffffffffffffffff1673ffffffffffffffffffffffffffffffffffffffff16815260200190815260200160002060009054906101000a900460ff16610776576040517f08c379a000000000000000000000000000000000000000000000000000000000815260040161076d90612230565b60405180910390fd5b60005b82518110156108a657600083828151811061079757610796612250565b5b602002602001015190506000600560008381526020019081526020016000206004015414806107dc575060016005600083815260200190815260200160002060040154145b61081b576040517f08c379a0000000000000000000000000000000000000000000000000000000008152600401610812906122cb565b60405180910390fd5b8260056000838152602001908152602001600020600501908161083e9190612063565b50600160056000838152602001908152602001600020600401819055507f178609011a6f377455589da301d156ddcc0886b8bab6d327d4f0f443166ee7708160405161088a9190611554565b60405180910390a150808061089e9061219c565b915050610779565b505050565b600060056000848152602001908152602001600020600701548214610905576040517f08c379a00000000000000000000000000000000000000000000000000000000081526004016108fc90612337565b60405180910390fd5b600060056000858152602001908152602001600020600401541480610940575060016005600085815260200190815260200160002060040154145b61097f576040517f08c379a000000000000000000000000000000000000000000000000000000000815260040161097690612337565b60405180910390fd5b60005b600460003373ffffffffffffffffffffffffffffffffffffffff1673ffffffffffffffffffffffffffffffffffffffff16815260200190815260200160002080549050811015610bb45783600460003373ffffffffffffffffffffffffffffffffffffffff1673ffffffffffffffffffffffffffffffffffffffff1681526020019081526020016000208281548110610a1e57610a1d612250565b5b906000526020600020015403610ba1576040518060400160405280600981526020017f44656c6976657265640000000000000000000000000000000000000000000000815250600560008681526020019081526020016000206005019081610a869190612063565b50600260056000868152602001908152602001600020600401819055506000610adb600560008781526020019081526020016000206003015460056000888152602001908152602001600020600601546114b0565b905060008114610b605760003373ffffffffffffffffffffffffffffffffffffffff166108fc839081150290604051600060405180830381858888f19350505050905080610b5e576040517f08c379a0000000000000000000000000000000000000000000000000000000008152600401610b55906123a3565b60405180910390fd5b505b7ff4cab30c72e549cbc991b23c55ffebe93fed40713b061832256837c75369045885604051610b8f9190611554565b60405180910390a14292505050610bba565b8080610bac9061219c565b915050610982565b50600090505b92915050565b610bc86114f6565b600160003373ffffffffffffffffffffffffffffffffffffffff1673ffffffffffffffffffffffffffffffffffffffff16815260200190815260200160002060009054906101000a900460ff16610c54576040517f08c379a0000000000000000000000000000000000000000000000000000000008152600401610c4b90611dcb565b60405180910390fd5b600560008381526020019081526020016000206040518061010001604052908160008201548152602001600182018054610c8d90611e86565b80601f0160208091040260200160405190810160405280929190818152602001828054610cb990611e86565b8015610d065780601f10610cdb57610100808354040283529160200191610d06565b820191906000526020600020905b815481529060010190602001808311610ce957829003601f168201915b50505050508152602001600282018054610d1f90611e86565b80601f0160208091040260200160405190810160405280929190818152602001828054610d4b90611e86565b8015610d985780601f10610d6d57610100808354040283529160200191610d98565b820191906000526020600020905b815481529060010190602001808311610d7b57829003601f168201915b505050505081526020016003820154815260200160048201548152602001600582018054610dc590611e86565b80601f0160208091040260200160405190810160405280929190818152602001828054610df190611e86565b8015610e3e5780601f10610e1357610100808354040283529160200191610e3e565b820191906000526020600020905b815481529060010190602001808311610e2157829003601f168201915b50505050508152602001600682015481526020016007820154815250509050919050565b60008054906101000a900473ffffffffffffffffffffffffffffffffffffffff1673ffffffffffffffffffffffffffffffffffffffff163373ffffffffffffffffffffffffffffffffffffffff1614610ef0576040517f08c379a0000000000000000000000000000000000000000000000000000000008152600401610ee790611d5f565b60405180910390fd5b6001600260008373ffffffffffffffffffffffffffffffffffffffff1673ffffffffffffffffffffffffffffffffffffffff16815260200190815260200160002060006101000a81548160ff02191690831515021790555050565b60008054906101000a900473ffffffffffffffffffffffffffffffffffffffff1673ffffffffffffffffffffffffffffffffffffffff163373ffffffffffffffffffffffffffffffffffffffff1614610fd9576040517f08c379a0000000000000000000000000000000000000000000000000000000008152600401610fd090611d5f565b60405180910390fd5b6000600160008373ffffffffffffffffffffffffffffffffffffffff1673ffffffffffffffffffffffffffffffffffffffff16815260200190815260200160002060006101000a81548160ff02191690831515021790555050565b6000340361104157600080fd5b565b60606000600460003373ffffffffffffffffffffffffffffffffffffffff1673ffffffffffffffffffffffffffffffffffffffff1681526020019081526020016000208054905067ffffffffffffffff8111156110a3576110a2611629565b5b6040519080825280602002602001820160405280156110dc57816020015b6110c96114f6565b8152602001906001900390816110c15790505b50905060005b600460003373ffffffffffffffffffffffffffffffffffffffff1673ffffffffffffffffffffffffffffffffffffffff168152602001908152602001600020805490508110156113bf5760056000600460003373ffffffffffffffffffffffffffffffffffffffff1673ffffffffffffffffffffffffffffffffffffffff168152602001908152602001600020838154811061118157611180612250565b5b9060005260206000200154815260200190815260200160002060405180610100016040529081600082015481526020016001820180546111c090611e86565b80601f01602080910402602001604051908101604052809291908181526020018280546111ec90611e86565b80156112395780601f1061120e57610100808354040283529160200191611239565b820191906000526020600020905b81548152906001019060200180831161121c57829003601f168201915b5050505050815260200160028201805461125290611e86565b80601f016020809104026020016040519081016040528092919081815260200182805461127e90611e86565b80156112cb5780601f106112a0576101008083540402835291602001916112cb565b820191906000526020600020905b8154815290600101906020018083116112ae57829003601f168201915b5050505050815260200160038201548152602001600482015481526020016005820180546112f890611e86565b80601f016020809104026020016040519081016040528092919081815260200182805461132490611e86565b80156113715780601f1061134657610100808354040283529160200191611371565b820191906000526020600020905b81548152906001019060200180831161135457829003601f168201915b50505050508152602001600682015481526020016007820154815250508282815181106113a1576113a0612250565b5b602002602001018190525080806113b79061219c565b9150506110e2565b508091505090565b60008054906101000a900473ffffffffffffffffffffffffffffffffffffffff1673ffffffffffffffffffffffffffffffffffffffff163373ffffffffffffffffffffffffffffffffffffffff1614611455576040517f08c379a000000000000000000000000000000000000000000000000000000000815260040161144c90611d5f565b60405180910390fd5b6000600260008373ffffffffffffffffffffffffffffffffffffffff1673ffffffffffffffffffffffffffffffffffffffff16815260200190815260200160002060006101000a81548160ff02191690831515021790555050565b60004283106114c257600090506114f0565b60006201518084426114d491906123c3565b6114de9190612426565b905082816114ec9190612457565b9150505b92915050565b60405180610100016040528060008152602001606081526020016060815260200160008152602001600081526020016060815260200160008152602001600081525090565b6000819050919050565b61154e8161153b565b82525050565b60006020820190506115696000830184611545565b92915050565b6000604051905090565b600080fd5b600080fd5b600073ffffffffffffffffffffffffffffffffffffffff82169050919050565b60006115ae82611583565b9050919050565b6115be816115a3565b81146115c957600080fd5b50565b6000813590506115db816115b5565b92915050565b6000602082840312156115f7576115f6611579565b5b6000611605848285016115cc565b91505092915050565b600080fd5b600080fd5b6000601f19601f8301169050919050565b7f4e487b7100000000000000000000000000000000000000000000000000000000600052604160045260246000fd5b61166182611618565b810181811067ffffffffffffffff821117156116805761167f611629565b5b80604052505050565b600061169361156f565b905061169f8282611658565b919050565b600067ffffffffffffffff8211156116bf576116be611629565b5b6116c882611618565b9050602081019050919050565b82818337600083830152505050565b60006116f76116f2846116a4565b611689565b90508281526020810184848401111561171357611712611613565b5b61171e8482856116d5565b509392505050565b600082601f83011261173b5761173a61160e565b5b813561174b8482602086016116e4565b91505092915050565b61175d8161153b565b811461176857600080fd5b50565b60008135905061177a81611754565b92915050565b60008060008060008060c0878903121561179d5761179c611579565b5b600087013567ffffffffffffffff8111156117bb576117ba61157e565b5b6117c789828a01611726565b965050602087013567ffffffffffffffff8111156117e8576117e761157e565b5b6117f489828a01611726565b955050604061180589828a016115cc565b945050606061181689828a0161176b565b935050608061182789828a0161176b565b92505060a061183889828a0161176b565b9150509295509295509295565b600067ffffffffffffffff8211156118605761185f611629565b5b602082029050602081019050919050565b600080fd5b600061188961188484611845565b611689565b905080838252602082019050602084028301858111156118ac576118ab611871565b5b835b818110156118d557806118c1888261176b565b8452602084019350506020810190506118ae565b5050509392505050565b600082601f8301126118f4576118f361160e565b5b8135611904848260208601611876565b91505092915050565b6000806040838503121561192457611923611579565b5b600083013567ffffffffffffffff8111156119425761194161157e565b5b61194e858286016118df565b925050602083013567ffffffffffffffff81111561196f5761196e61157e565b5b61197b85828601611726565b9150509250929050565b6000806040838503121561199c5761199b611579565b5b60006119aa8582860161176b565b92505060206119bb8582860161176b565b9150509250929050565b6000602082840312156119db576119da611579565b5b60006119e98482850161176b565b91505092915050565b6119fb8161153b565b82525050565b600081519050919050565b600082825260208201905092915050565b60005b83811015611a3b578082015181840152602081019050611a20565b60008484015250505050565b6000611a5282611a01565b611a5c8185611a0c565b9350611a6c818560208601611a1d565b611a7581611618565b840191505092915050565b600061010083016000830151611a9960008601826119f2565b5060208301518482036020860152611ab18282611a47565b91505060408301518482036040860152611acb8282611a47565b9150506060830151611ae060608601826119f2565b506080830151611af360808601826119f2565b5060a083015184820360a0860152611b0b8282611a47565b91505060c0830151611b2060c08601826119f2565b5060e0830151611b3360e08601826119f2565b508091505092915050565b60006020820190508181036000830152611b588184611a80565b905092915050565b600081519050919050565b600082825260208201905092915050565b6000819050602082019050919050565b600061010083016000830151611ba560008601826119f2565b5060208301518482036020860152611bbd8282611a47565b91505060408301518482036040860152611bd78282611a47565b9150506060830151611bec60608601826119f2565b506080830151611bff60808601826119f2565b5060a083015184820360a0860152611c178282611a47565b91505060c0830151611c2c60c08601826119f2565b5060e0830151611c3f60e08601826119f2565b508091505092915050565b6000611c568383611b8c565b905092915050565b6000602082019050919050565b6000611c7682611b60565b611c808185611b6b565b935083602082028501611c9285611b7c565b8060005b85811015611cce5784840389528151611caf8582611c4a565b9450611cba83611c5e565b925060208a01995050600181019050611c96565b50829750879550505050505092915050565b60006020820190508181036000830152611cfa8184611c6b565b905092915050565b600082825260208201905092915050565b7f4e6f7420746865206f776e657200000000000000000000000000000000000000600082015250565b6000611d49600d83611d02565b9150611d5482611d13565b602082019050919050565b60006020820190508181036000830152611d7881611d3c565b9050919050565b7f4e6f742061207368697070657200000000000000000000000000000000000000600082015250565b6000611db5600d83611d02565b9150611dc082611d7f565b602082019050919050565b60006020820190508181036000830152611de481611da8565b9050919050565b7f496e76616c696420617267756d656e7473000000000000000000000000000000600082015250565b6000611e21601183611d02565b9150611e2c82611deb565b602082019050919050565b60006020820190508181036000830152611e5081611e14565b9050919050565b7f4e487b7100000000000000000000000000000000000000000000000000000000600052602260045260246000fd5b60006002820490506001821680611e9e57607f821691505b602082108103611eb157611eb0611e57565b5b50919050565b60008190508160005260206000209050919050565b60006020601f8301049050919050565b600082821b905092915050565b600060088302611f197fffffffffffffffffffffffffffffffffffffffffffffffffffffffffffffffff82611edc565b611f238683611edc565b95508019841693508086168417925050509392505050565b6000819050919050565b6000611f60611f5b611f568461153b565b611f3b565b61153b565b9050919050565b6000819050919050565b611f7a83611f45565b611f8e611f8682611f67565b848454611ee9565b825550505050565b600090565b611fa3611f96565b611fae818484611f71565b505050565b5b81811015611fd257611fc7600082611f9b565b600181019050611fb4565b5050565b601f82111561201757611fe881611eb7565b611ff184611ecc565b81016020851015612000578190505b61201461200c85611ecc565b830182611fb3565b50505b505050565b600082821c905092915050565b600061203a6000198460080261201c565b1980831691505092915050565b60006120538383612029565b9150826002028217905092915050565b61206c82611a01565b67ffffffffffffffff81111561208557612084611629565b5b61208f8254611e86565b61209a828285611fd6565b600060209050601f8311600181146120cd57600084156120bb578287015190505b6120c58582612047565b86555061212d565b601f1984166120db86611eb7565b60005b82811015612103578489015182556001820191506020850194506020810190506120de565b86831015612120578489015161211c601f891682612029565b8355505b6001600288020188555050505b505050505050565b61213e816115a3565b82525050565b60006040820190506121596000830185612135565b6121666020830184611545565b9392505050565b7f4e487b7100000000000000000000000000000000000000000000000000000000600052601160045260246000fd5b60006121a78261153b565b91507fffffffffffffffffffffffffffffffffffffffffffffffffffffffffffffffff82036121d9576121d861216d565b5b600182019050919050565b7f4e6f74206120706172746e657200000000000000000000000000000000000000600082015250565b600061221a600d83611d02565b9150612225826121e4565b602082019050919050565b600060208201905081810360008301526122498161220d565b9050919050565b7f4e487b7100000000000000000000000000000000000000000000000000000000600052603260045260246000fd5b7f43616e277420557064617465206c6f636174696f6e0000000000000000000000600082015250565b60006122b5601583611d02565b91506122c08261227f565b602082019050919050565b600060208201905081810360008301526122e4816122a8565b9050919050565b7f496e76616c696400000000000000000000000000000000000000000000000000600082015250565b6000612321600783611d02565b915061232c826122eb565b602082019050919050565b6000602082019050818103600083015261235081612314565b9050919050565b7f4661696c656420746f20636f6d70656e73617465000000000000000000000000600082015250565b600061238d601483611d02565b915061239882612357565b602082019050919050565b600060208201905081810360008301526123bc81612380565b9050919050565b60006123ce8261153b565b91506123d98361153b565b92508282039050818111156123f1576123f061216d565b5b92915050565b7f4e487b7100000000000000000000000000000000000000000000000000000000600052601260045260246000fd5b60006124318261153b565b915061243c8361153b565b92508261244c5761244b6123f7565b5b828204905092915050565b60006124628261153b565b915061246d8361153b565b925082820261247b8161153b565b915082820484148315176124925761249161216d565b5b509291505056fea2646970667358221220a386aed46a8f5450f23e319ee5024c20a687670ef85db004e1a7c69ca033267464736f6c63430008120033",
  "immutableReferences": {},
  "source": "// SPDX-License-Identifier: GPL-3.0-only\r\n// Author:- @sauravrao637\r\npragma solidity ^0.8.10;\r\n\r\ncontract CamoParcel{\r\n    address owner;\r\n    mapping(address => bool) authorisedShippers;\r\n    mapping(address => bool) authorisedPartners;\r\n\r\n    modifier onlyOwner() {\r\n        require(msg.sender == owner, \"Not the owner\");\r\n        _;\r\n    }\r\n\r\n    modifier onlyShipper(){\r\n        require(authorisedShippers[msg.sender], \"Not a shipper\");\r\n        _;\r\n    }\r\n\r\n    modifier onlyPartner(){\r\n        require(authorisedPartners[msg.sender], \"Not a partner\");\r\n        _;\r\n    }\r\n    constructor(){\r\n        owner = msg.sender;\r\n\r\n    }\r\n    event ParcelShippedEvent(address, uint);\r\n    event ParcelLocationUpdated(uint);\r\n    event ParcelDelivered(uint);\r\n\r\n    uint parcelId = 0;\r\n    struct Parcel{\r\n        uint id;\r\n        string itemName;\r\n        string itemDesc;\r\n        uint expectedDelivery;\r\n        uint status; //dispatched->0, inTransit -> 1, delivered -> 2, failed ->3\r\n        string currentLocation;\r\n        uint baseCompensation;\r\n        uint otp;\r\n    }\r\n\r\n    mapping(address => uint[]) userParcels;\r\n    mapping(uint => Parcel) parcels;\r\n\r\n    function addShipper(address shipper) public onlyOwner{\r\n        authorisedShippers[shipper] = true;\r\n    }\r\n\r\n    function removeShipper(address shipper) public onlyOwner{\r\n        authorisedShippers[shipper] = false;\r\n    }\r\n\r\n    function addPartner(address partner) public onlyOwner{\r\n        authorisedPartners[partner] = true;\r\n    }\r\n\r\n    function removePartner(address partner) public onlyOwner{\r\n        authorisedPartners[partner] = false;\r\n    }\r\n\r\n    function shipOrder(string memory itemName, string memory itemDesc, address userAddress, uint expectedDelivery, uint baseCompensation, uint otp) public onlyShipper{\r\n        require(expectedDelivery> block.timestamp, \"Invalid arguments\");\r\n\r\n        Parcel memory parcel = Parcel(\r\n            parcelId,\r\n            itemName,\r\n            itemDesc,\r\n            expectedDelivery,\r\n            0,\r\n            \"Dispatched\",\r\n            baseCompensation,\r\n            otp\r\n        );\r\n        \r\n        userParcels[userAddress].push(parcelId);\r\n        parcels[parcelId] = parcel;\r\n        \r\n        emit ParcelShippedEvent(userAddress, parcelId);\r\n\r\n        parcelId++;\r\n    }\r\n\r\n    function updateLocation(uint[] memory pIds, string memory location) public onlyPartner{\r\n        for(uint i=0;i<pIds.length;i++){\r\n            uint pId = pIds[i];    \r\n            require(parcels[pId].status == 0 || parcels[pId].status ==1, \"Can't Update location\");\r\n            parcels[pId].currentLocation = location;\r\n            parcels[pId].status = 1;\r\n            emit ParcelLocationUpdated(pId);\r\n        }\r\n    }\r\n\r\n    function getCompensation(uint expectedDelivery, uint baseCompensation) private view returns(uint){\r\n        if(expectedDelivery >= block.timestamp) return 0;\r\n        uint difDays = (block.timestamp - expectedDelivery)/(1 days);\r\n        return difDays*baseCompensation;\r\n    }\r\n\r\n    function markParcelReceived(uint pId, uint otp) public returns(uint256) {\r\n        require(otp == parcels[pId].otp, \"Invalid\");\r\n        require(parcels[pId].status == 0 || parcels[pId].status == 1,\"Invalid\");\r\n        for(uint i=0;i< userParcels[msg.sender].length;i++){\r\n            if(userParcels[msg.sender][i] == pId){\r\n                parcels[pId].currentLocation = \"Delivered\";\r\n                parcels[pId].status = 2;\r\n                uint compensation = getCompensation(parcels[pId].expectedDelivery, parcels[pId].baseCompensation);\r\n                if(compensation !=0){\r\n                    bool sent = payable(msg.sender).send(compensation);\r\n                    require(sent, \"Failed to compensate\");\r\n                }\r\n                emit ParcelDelivered(pId);\r\n                return block.timestamp;\r\n            }\r\n        }\r\n        return 0;\r\n    }\r\n\r\n    function viewMyParcels() public view returns (Parcel[] memory) {\r\n        Parcel[] memory myParcels = new Parcel[](userParcels[msg.sender].length);\r\n        for(uint i=0;i< userParcels[msg.sender].length;i++){\r\n            myParcels[i] = parcels[userParcels[msg.sender][i]];\r\n        }\r\n        return myParcels;\r\n    }\r\n\r\n    function viewparcel(uint pId) public view onlyShipper returns(Parcel memory){\r\n        return parcels[pId];\r\n    }\r\n\r\n    function withdrawFunds() public payable onlyOwner{\r\n        payable(msg.sender).transfer(address(this).balance);\r\n    }\r\n\r\n    receive() external payable {}\r\n    fallback() external payable {}\r\n\r\n    function getBalance() public view returns (uint) {\r\n        return address(this).balance;\r\n    }\r\n\r\n    function fund() public payable{\r\n        require(msg.value!=0);\r\n    }\r\n}\r\n",
  "sourcePath": "C:\\Users\\asus\\Desktop\\Project\\ParcelPledge\\blockchain\\contracts\\CamoParcel.sol",
  "compiler": {
    "name": "solc",
    "version": "0.8.18+commit.87f61d96.Emscripten.clang"
  },
  "schemaVersion": "3.4.14",
  "updatedAt": "2023-07-10T20:49:19.277Z",
  "networkType": "ethereum",
  "devdoc": {
    "kind": "dev",
    "methods": {},
    "version": 1
  },
  "userdoc": {
    "kind": "user",
    "methods": {},
    "version": 1
  }
}