{
  "contractName": "CamoParcel",
  "abi": [
    {
      "inputs": [],
      "stateMutability": "nonpayable",
      "type": "constructor"
    },
    {
      "anonymous": false,
      "inputs": [
        {
          "indexed": false,
          "internalType": "address",
          "name": "",
          "type": "address"
        },
        {
          "indexed": false,
          "internalType": "address",
          "name": "",
          "type": "address"
        },
        {
          "indexed": false,
          "internalType": "uint256",
          "name": "",
          "type": "uint256"
        }
      ],
      "name": "ParcelDelivered",
      "type": "event"
    },
    {
      "anonymous": false,
      "inputs": [
        {
          "indexed": false,
          "internalType": "address",
          "name": "",
          "type": "address"
        },
        {
          "indexed": false,
          "internalType": "address",
          "name": "",
          "type": "address"
        },
        {
          "indexed": false,
          "internalType": "uint256",
          "name": "",
          "type": "uint256"
        }
      ],
      "name": "ParcelLocationUpdated",
      "type": "event"
    },
    {
      "anonymous": false,
      "inputs": [
        {
          "indexed": false,
          "internalType": "address",
          "name": "",
          "type": "address"
        },
        {
          "indexed": false,
          "internalType": "address",
          "name": "",
          "type": "address"
        },
        {
          "indexed": false,
          "internalType": "uint256",
          "name": "",
          "type": "uint256"
        }
      ],
      "name": "ParcelShippedEvent",
      "type": "event"
    },
    {
      "stateMutability": "payable",
      "type": "fallback",
      "payable": true
    },
    {
      "stateMutability": "payable",
      "type": "receive",
      "payable": true
    },
    {
      "inputs": [
        {
          "internalType": "address",
          "name": "shipper",
          "type": "address"
        }
      ],
      "name": "addShipper",
      "outputs": [],
      "stateMutability": "nonpayable",
      "type": "function"
    },
    {
      "inputs": [
        {
          "internalType": "address",
          "name": "user",
          "type": "address"
        }
      ],
      "name": "removeAssociate",
      "outputs": [],
      "stateMutability": "nonpayable",
      "type": "function"
    },
    {
      "inputs": [
        {
          "internalType": "address",
          "name": "shipper",
          "type": "address"
        }
      ],
      "name": "removeShipper",
      "outputs": [],
      "stateMutability": "nonpayable",
      "type": "function"
    },
    {
      "inputs": [
        {
          "internalType": "address",
          "name": "partner",
          "type": "address"
        }
      ],
      "name": "addPartner",
      "outputs": [],
      "stateMutability": "nonpayable",
      "type": "function"
    },
    {
      "inputs": [
        {
          "internalType": "address",
          "name": "partner",
          "type": "address"
        }
      ],
      "name": "removePartner",
      "outputs": [],
      "stateMutability": "nonpayable",
      "type": "function"
    },
    {
      "inputs": [
        {
          "internalType": "string",
          "name": "itemName",
          "type": "string"
        },
        {
          "internalType": "string",
          "name": "itemDesc",
          "type": "string"
        },
        {
          "internalType": "address",
          "name": "userAddress",
          "type": "address"
        },
        {
          "internalType": "uint256",
          "name": "expectedDelivery",
          "type": "uint256"
        },
        {
          "internalType": "uint256",
          "name": "baseCompensation",
          "type": "uint256"
        },
        {
          "internalType": "uint256",
          "name": "otp",
          "type": "uint256"
        }
      ],
      "name": "shipOrder",
      "outputs": [],
      "stateMutability": "nonpayable",
      "type": "function"
    },
    {
      "inputs": [
        {
          "internalType": "uint256[]",
          "name": "pIds",
          "type": "uint256[]"
        },
        {
          "internalType": "string",
          "name": "location",
          "type": "string"
        }
      ],
      "name": "updateLocation",
      "outputs": [],
      "stateMutability": "nonpayable",
      "type": "function"
    },
    {
      "inputs": [
        {
          "internalType": "uint256",
          "name": "pId",
          "type": "uint256"
        },
        {
          "internalType": "uint256",
          "name": "otp",
          "type": "uint256"
        }
      ],
      "name": "markParcelDelivered",
      "outputs": [],
      "stateMutability": "nonpayable",
      "type": "function"
    },
    {
      "inputs": [],
      "name": "viewMyParcels",
      "outputs": [
        {
          "components": [
            {
              "internalType": "uint256",
              "name": "id",
              "type": "uint256"
            },
            {
              "internalType": "address",
              "name": "receiver",
              "type": "address"
            },
            {
              "internalType": "string",
              "name": "itemName",
              "type": "string"
            },
            {
              "internalType": "string",
              "name": "itemDesc",
              "type": "string"
            },
            {
              "internalType": "uint256",
              "name": "expectedDelivery",
              "type": "uint256"
            },
            {
              "internalType": "uint256",
              "name": "status",
              "type": "uint256"
            },
            {
              "internalType": "string",
              "name": "currentLocation",
              "type": "string"
            },
            {
              "internalType": "uint256",
              "name": "baseCompensation",
              "type": "uint256"
            },
            {
              "internalType": "uint256",
              "name": "otp",
              "type": "uint256"
            }
          ],
          "internalType": "struct CamoParcel.Parcel[]",
          "name": "",
          "type": "tuple[]"
        }
      ],
      "stateMutability": "view",
      "type": "function",
      "constant": true
    },
    {
      "inputs": [
        {
          "internalType": "uint256",
          "name": "pId",
          "type": "uint256"
        }
      ],
      "name": "viewparcel",
      "outputs": [
        {
          "components": [
            {
              "internalType": "uint256",
              "name": "id",
              "type": "uint256"
            },
            {
              "internalType": "address",
              "name": "receiver",
              "type": "address"
            },
            {
              "internalType": "string",
              "name": "itemName",
              "type": "string"
            },
            {
              "internalType": "string",
              "name": "itemDesc",
              "type": "string"
            },
            {
              "internalType": "uint256",
              "name": "expectedDelivery",
              "type": "uint256"
            },
            {
              "internalType": "uint256",
              "name": "status",
              "type": "uint256"
            },
            {
              "internalType": "string",
              "name": "currentLocation",
              "type": "string"
            },
            {
              "internalType": "uint256",
              "name": "baseCompensation",
              "type": "uint256"
            },
            {
              "internalType": "uint256",
              "name": "otp",
              "type": "uint256"
            }
          ],
          "internalType": "struct CamoParcel.Parcel",
          "name": "",
          "type": "tuple"
        }
      ],
      "stateMutability": "view",
      "type": "function",
      "constant": true
    },
    {
      "inputs": [],
      "name": "withdrawFunds",
      "outputs": [],
      "stateMutability": "payable",
      "type": "function",
      "payable": true
    },
    {
      "inputs": [],
      "name": "getBalance",
      "outputs": [
        {
          "internalType": "uint256",
          "name": "",
          "type": "uint256"
        }
      ],
      "stateMutability": "view",
      "type": "function",
      "constant": true
    },
    {
      "inputs": [],
      "name": "fund",
      "outputs": [],
      "stateMutability": "payable",
      "type": "function",
      "payable": true
    },
    {
      "inputs": [],
      "name": "getMyType",
      "outputs": [
        {
          "internalType": "uint16",
          "name": "",
          "type": "uint16"
        }
      ],
      "stateMutability": "view",
      "type": "function",
      "constant": true
    }
  ],
  "bytecode": "0x6080604052600060035534801561001557600080fd5b50336000806101000a81548173ffffffffffffffffffffffffffffffffffffffff021916908373ffffffffffffffffffffffffffffffffffffffff160217905550612cf3806100656000396000f3fe6080604052600436106100e15760003560e01c80637c6bff431161007f578063b27f307011610059578063b27f30701461027d578063b60d4288146102a6578063c0031b9b146102b0578063ea3c281a146102db576100e8565b80637c6bff43146102005780638bf342371461022b5780639909c6d414610254576100e8565b80633883e369116100bb5780633883e36914610148578063406c05ae14610171578063454619491461019a5780634e15e4f5146101c3576100e8565b806312065fe0146100ea578063155a76461461011557806324600fc31461013e576100e8565b366100e857005b005b3480156100f657600080fd5b506100ff610304565b60405161010c9190611bb5565b60405180910390f35b34801561012157600080fd5b5061013c60048036038101906101379190611c42565b61030c565b005b610146610481565b005b34801561015457600080fd5b5061016f600480360381019061016a9190611c9b565b610558565b005b34801561017d57600080fd5b5061019860048036038101906101939190611e21565b610894565b005b3480156101a657600080fd5b506101c160048036038101906101bc9190611fae565b610c72565b005b3480156101cf57600080fd5b506101ea60048036038101906101e59190612026565b610e6d565b6040516101f791906121c3565b60405180910390f35b34801561020c57600080fd5b50610215611165565b6040516102229190612202565b60405180910390f35b34801561023757600080fd5b50610252600480360381019061024d9190611c42565b611282565b005b34801561026057600080fd5b5061027b60048036038101906102769190611c42565b6113f8565b005b34801561028957600080fd5b506102a4600480360381019061029f9190611c42565b611539565b005b6102ae611622565b005b3480156102bc57600080fd5b506102c5611631565b6040516102d291906123b2565b60405180910390f35b3480156102e757600080fd5b5061030260048036038101906102fd9190611c42565b611a0b565b005b600047905090565b60008054906101000a900473ffffffffffffffffffffffffffffffffffffffff1673ffffffffffffffffffffffffffffffffffffffff163373ffffffffffffffffffffffffffffffffffffffff161461039a576040517f08c379a000000000000000000000000000000000000000000000000000000000815260040161039190612431565b60405180910390fd5b600260008273ffffffffffffffffffffffffffffffffffffffff1673ffffffffffffffffffffffffffffffffffffffff16815260200190815260200160002060009054906101000a900460ff1615610427576040517f08c379a000000000000000000000000000000000000000000000000000000000815260040161041e9061249d565b60405180910390fd5b60018060008373ffffffffffffffffffffffffffffffffffffffff1673ffffffffffffffffffffffffffffffffffffffff16815260200190815260200160002060006101000a81548160ff02191690831515021790555050565b60008054906101000a900473ffffffffffffffffffffffffffffffffffffffff1673ffffffffffffffffffffffffffffffffffffffff163373ffffffffffffffffffffffffffffffffffffffff161461050f576040517f08c379a000000000000000000000000000000000000000000000000000000000815260040161050690612431565b60405180910390fd5b3373ffffffffffffffffffffffffffffffffffffffff166108fc479081150290604051600060405180830381858888f19350505050158015610555573d6000803e3d6000fd5b50565b600260003373ffffffffffffffffffffffffffffffffffffffff1673ffffffffffffffffffffffffffffffffffffffff16815260200190815260200160002060009054906101000a900460ff166105e4576040517f08c379a00000000000000000000000000000000000000000000000000000000081526004016105db90612509565b60405180910390fd5b6005600083815260200190815260200160002060080154811461063c576040517f08c379a000000000000000000000000000000000000000000000000000000000815260040161063390612575565b60405180910390fd5b600060056000848152602001908152602001600020600501541480610677575060016005600084815260200190815260200160002060050154145b6106b6576040517f08c379a00000000000000000000000000000000000000000000000000000000081526004016106ad90612575565b60405180910390fd5b6040518060400160405280600981526020017f44656c697665726564000000000000000000000000000000000000000000000081525060056000848152602001908152602001600020600601908161070e91906127a1565b5060026005600084815260200190815260200160002060050181905550600061076360056000858152602001908152602001600020600401546005600086815260200190815260200160002060070154611af4565b90506000811461081e5760006005600085815260200190815260200160002060010160009054906101000a900473ffffffffffffffffffffffffffffffffffffffff1673ffffffffffffffffffffffffffffffffffffffff166108fc839081150290604051600060405180830381858888f1935050505090508061081c576040517f08c379a0000000000000000000000000000000000000000000000000000000008152600401610813906128bf565b60405180910390fd5b505b7f3be6b44b0d8170026cc992b6b6eda259b98e02d16bdfe4b9dd3db223b5420cfd336005600086815260200190815260200160002060010160009054906101000a900473ffffffffffffffffffffffffffffffffffffffff1685604051610887939291906128ee565b60405180910390a1505050565b600160003373ffffffffffffffffffffffffffffffffffffffff1673ffffffffffffffffffffffffffffffffffffffff16815260200190815260200160002060009054906101000a900460ff16610920576040517f08c379a000000000000000000000000000000000000000000000000000000000815260040161091790612971565b60405180910390fd5b600260008573ffffffffffffffffffffffffffffffffffffffff1673ffffffffffffffffffffffffffffffffffffffff16815260200190815260200160002060009054906101000a900460ff161580156109c45750600160008573ffffffffffffffffffffffffffffffffffffffff1673ffffffffffffffffffffffffffffffffffffffff16815260200190815260200160002060009054906101000a900460ff16155b610a03576040517f08c379a00000000000000000000000000000000000000000000000000000000081526004016109fa906129dd565b60405180910390fd5b428311610a45576040517f08c379a0000000000000000000000000000000000000000000000000000000008152600401610a3c90612a49565b60405180910390fd5b600060405180610120016040528060035481526020018673ffffffffffffffffffffffffffffffffffffffff168152602001888152602001878152602001858152602001600081526020016040518060400160405280600a81526020017f44697370617463686564000000000000000000000000000000000000000000008152508152602001848152602001838152509050600460008673ffffffffffffffffffffffffffffffffffffffff1673ffffffffffffffffffffffffffffffffffffffff1681526020019081526020016000206003549080600181540180825580915050600190039060005260206000200160009091909190915055806005600060035481526020019081526020016000206000820151816000015560208201518160010160006101000a81548173ffffffffffffffffffffffffffffffffffffffff021916908373ffffffffffffffffffffffffffffffffffffffff1602179055506040820151816002019081610bbb91906127a1565b506060820151816003019081610bd191906127a1565b506080820151816004015560a0820151816005015560c0820151816006019081610bfb91906127a1565b5060e0820151816007015561010082015181600801559050507f32c1836ded10d94133bd527768a93f4a18336e79a66c70baa8093401c9e3440f3386600354604051610c49939291906128ee565b60405180910390a160036000815480929190610c6490612a98565b919050555050505050505050565b600260003373ffffffffffffffffffffffffffffffffffffffff1673ffffffffffffffffffffffffffffffffffffffff16815260200190815260200160002060009054906101000a900460ff16610cfe576040517f08c379a0000000000000000000000000000000000000000000000000000000008152600401610cf590612509565b60405180910390fd5b60005b8251811015610e68576000838281518110610d1f57610d1e612ae0565b5b60200260200101519050600060056000838152602001908152602001600020600501541480610d64575060016005600083815260200190815260200160002060050154145b610da3576040517f08c379a0000000000000000000000000000000000000000000000000000000008152600401610d9a90612b5b565b60405180910390fd5b82600560008381526020019081526020016000206006019081610dc691906127a1565b50600160056000838152602001908152602001600020600501819055507fa3c313d9290f28b0a583dcc5ceabc0a50c3124d1ae9ae1630668c1f404d5a6b6336005600084815260200190815260200160002060010160009054906101000a900473ffffffffffffffffffffffffffffffffffffffff1683604051610e4c939291906128ee565b60405180910390a1508080610e6090612a98565b915050610d01565b505050565b610e75611b3a565b600160003373ffffffffffffffffffffffffffffffffffffffff1673ffffffffffffffffffffffffffffffffffffffff16815260200190815260200160002060009054906101000a900460ff16610f01576040517f08c379a0000000000000000000000000000000000000000000000000000000008152600401610ef890612971565b60405180910390fd5b6005600083815260200190815260200160002060405180610120016040529081600082015481526020016001820160009054906101000a900473ffffffffffffffffffffffffffffffffffffffff1673ffffffffffffffffffffffffffffffffffffffff1673ffffffffffffffffffffffffffffffffffffffff168152602001600282018054610f90906125c4565b80601f0160208091040260200160405190810160405280929190818152602001828054610fbc906125c4565b80156110095780601f10610fde57610100808354040283529160200191611009565b820191906000526020600020905b815481529060010190602001808311610fec57829003601f168201915b50505050508152602001600382018054611022906125c4565b80601f016020809104026020016040519081016040528092919081815260200182805461104e906125c4565b801561109b5780601f106110705761010080835404028352916020019161109b565b820191906000526020600020905b81548152906001019060200180831161107e57829003601f168201915b5050505050815260200160048201548152602001600582015481526020016006820180546110c8906125c4565b80601f01602080910402602001604051908101604052809291908181526020018280546110f4906125c4565b80156111415780601f1061111657610100808354040283529160200191611141565b820191906000526020600020905b81548152906001019060200180831161112457829003601f168201915b50505050508152602001600782015481526020016008820154815250509050919050565b6000600260003373ffffffffffffffffffffffffffffffffffffffff1673ffffffffffffffffffffffffffffffffffffffff16815260200190815260200160002060009054906101000a900460ff16156111c2576001905061127f565b600160003373ffffffffffffffffffffffffffffffffffffffff1673ffffffffffffffffffffffffffffffffffffffff16815260200190815260200160002060009054906101000a900460ff161561121d576000905061127f565b60008054906101000a900473ffffffffffffffffffffffffffffffffffffffff1673ffffffffffffffffffffffffffffffffffffffff163373ffffffffffffffffffffffffffffffffffffffff160361127a576103e7905061127f565b600290505b90565b60008054906101000a900473ffffffffffffffffffffffffffffffffffffffff1673ffffffffffffffffffffffffffffffffffffffff163373ffffffffffffffffffffffffffffffffffffffff1614611310576040517f08c379a000000000000000000000000000000000000000000000000000000000815260040161130790612431565b60405180910390fd5b600160008273ffffffffffffffffffffffffffffffffffffffff1673ffffffffffffffffffffffffffffffffffffffff16815260200190815260200160002060009054906101000a900460ff161561139d576040517f08c379a000000000000000000000000000000000000000000000000000000000815260040161139490612bc7565b60405180910390fd5b6001600260008373ffffffffffffffffffffffffffffffffffffffff1673ffffffffffffffffffffffffffffffffffffffff16815260200190815260200160002060006101000a81548160ff02191690831515021790555050565b60008054906101000a900473ffffffffffffffffffffffffffffffffffffffff1673ffffffffffffffffffffffffffffffffffffffff163373ffffffffffffffffffffffffffffffffffffffff1614611486576040517f08c379a000000000000000000000000000000000000000000000000000000000815260040161147d90612431565b60405180910390fd5b6000600260008373ffffffffffffffffffffffffffffffffffffffff1673ffffffffffffffffffffffffffffffffffffffff16815260200190815260200160002060006101000a81548160ff0219169083151502179055506000600160008373ffffffffffffffffffffffffffffffffffffffff1673ffffffffffffffffffffffffffffffffffffffff16815260200190815260200160002060006101000a81548160ff02191690831515021790555050565b60008054906101000a900473ffffffffffffffffffffffffffffffffffffffff1673ffffffffffffffffffffffffffffffffffffffff163373ffffffffffffffffffffffffffffffffffffffff16146115c7576040517f08c379a00000000000000000000000000000000000000000000000000000000081526004016115be90612431565b60405180910390fd5b6000600160008373ffffffffffffffffffffffffffffffffffffffff1673ffffffffffffffffffffffffffffffffffffffff16815260200190815260200160002060006101000a81548160ff02191690831515021790555050565b6000340361162f57600080fd5b565b60606000600460003373ffffffffffffffffffffffffffffffffffffffff1673ffffffffffffffffffffffffffffffffffffffff1681526020019081526020016000208054905067ffffffffffffffff81111561169157611690611cf6565b5b6040519080825280602002602001820160405280156116ca57816020015b6116b7611b3a565b8152602001906001900390816116af5790505b50905060005b600460003373ffffffffffffffffffffffffffffffffffffffff1673ffffffffffffffffffffffffffffffffffffffff16815260200190815260200160002080549050811015611a035760056000600460003373ffffffffffffffffffffffffffffffffffffffff1673ffffffffffffffffffffffffffffffffffffffff168152602001908152602001600020838154811061176f5761176e612ae0565b5b9060005260206000200154815260200190815260200160002060405180610120016040529081600082015481526020016001820160009054906101000a900473ffffffffffffffffffffffffffffffffffffffff1673ffffffffffffffffffffffffffffffffffffffff1673ffffffffffffffffffffffffffffffffffffffff168152602001600282018054611804906125c4565b80601f0160208091040260200160405190810160405280929190818152602001828054611830906125c4565b801561187d5780601f106118525761010080835404028352916020019161187d565b820191906000526020600020905b81548152906001019060200180831161186057829003601f168201915b50505050508152602001600382018054611896906125c4565b80601f01602080910402602001604051908101604052809291908181526020018280546118c2906125c4565b801561190f5780601f106118e45761010080835404028352916020019161190f565b820191906000526020600020905b8154815290600101906020018083116118f257829003601f168201915b50505050508152602001600482015481526020016005820154815260200160068201805461193c906125c4565b80601f0160208091040260200160405190810160405280929190818152602001828054611968906125c4565b80156119b55780601f1061198a576101008083540402835291602001916119b5565b820191906000526020600020905b81548152906001019060200180831161199857829003601f168201915b50505050508152602001600782015481526020016008820154815250508282815181106119e5576119e4612ae0565b5b602002602001018190525080806119fb90612a98565b9150506116d0565b508091505090565b60008054906101000a900473ffffffffffffffffffffffffffffffffffffffff1673ffffffffffffffffffffffffffffffffffffffff163373ffffffffffffffffffffffffffffffffffffffff1614611a99576040517f08c379a0000000000000000000000000000000000000000000000000000000008152600401611a9090612431565b60405180910390fd5b6000600260008373ffffffffffffffffffffffffffffffffffffffff1673ffffffffffffffffffffffffffffffffffffffff16815260200190815260200160002060006101000a81548160ff02191690831515021790555050565b6000428310611b065760009050611b34565b6000620151808442611b189190612be7565b611b229190612c4a565b90508281611b309190612c7b565b9150505b92915050565b60405180610120016040528060008152602001600073ffffffffffffffffffffffffffffffffffffffff168152602001606081526020016060815260200160008152602001600081526020016060815260200160008152602001600081525090565b6000819050919050565b611baf81611b9c565b82525050565b6000602082019050611bca6000830184611ba6565b92915050565b6000604051905090565b600080fd5b600080fd5b600073ffffffffffffffffffffffffffffffffffffffff82169050919050565b6000611c0f82611be4565b9050919050565b611c1f81611c04565b8114611c2a57600080fd5b50565b600081359050611c3c81611c16565b92915050565b600060208284031215611c5857611c57611bda565b5b6000611c6684828501611c2d565b91505092915050565b611c7881611b9c565b8114611c8357600080fd5b50565b600081359050611c9581611c6f565b92915050565b60008060408385031215611cb257611cb1611bda565b5b6000611cc085828601611c86565b9250506020611cd185828601611c86565b9150509250929050565b600080fd5b600080fd5b6000601f19601f8301169050919050565b7f4e487b7100000000000000000000000000000000000000000000000000000000600052604160045260246000fd5b611d2e82611ce5565b810181811067ffffffffffffffff82111715611d4d57611d4c611cf6565b5b80604052505050565b6000611d60611bd0565b9050611d6c8282611d25565b919050565b600067ffffffffffffffff821115611d8c57611d8b611cf6565b5b611d9582611ce5565b9050602081019050919050565b82818337600083830152505050565b6000611dc4611dbf84611d71565b611d56565b905082815260208101848484011115611de057611ddf611ce0565b5b611deb848285611da2565b509392505050565b600082601f830112611e0857611e07611cdb565b5b8135611e18848260208601611db1565b91505092915050565b60008060008060008060c08789031215611e3e57611e3d611bda565b5b600087013567ffffffffffffffff811115611e5c57611e5b611bdf565b5b611e6889828a01611df3565b965050602087013567ffffffffffffffff811115611e8957611e88611bdf565b5b611e9589828a01611df3565b9550506040611ea689828a01611c2d565b9450506060611eb789828a01611c86565b9350506080611ec889828a01611c86565b92505060a0611ed989828a01611c86565b9150509295509295509295565b600067ffffffffffffffff821115611f0157611f00611cf6565b5b602082029050602081019050919050565b600080fd5b6000611f2a611f2584611ee6565b611d56565b90508083825260208201905060208402830185811115611f4d57611f4c611f12565b5b835b81811015611f765780611f628882611c86565b845260208401935050602081019050611f4f565b5050509392505050565b600082601f830112611f9557611f94611cdb565b5b8135611fa5848260208601611f17565b91505092915050565b60008060408385031215611fc557611fc4611bda565b5b600083013567ffffffffffffffff811115611fe357611fe2611bdf565b5b611fef85828601611f80565b925050602083013567ffffffffffffffff8111156120105761200f611bdf565b5b61201c85828601611df3565b9150509250929050565b60006020828403121561203c5761203b611bda565b5b600061204a84828501611c86565b91505092915050565b61205c81611b9c565b82525050565b61206b81611c04565b82525050565b600081519050919050565b600082825260208201905092915050565b60005b838110156120ab578082015181840152602081019050612090565b60008484015250505050565b60006120c282612071565b6120cc818561207c565b93506120dc81856020860161208d565b6120e581611ce5565b840191505092915050565b6000610120830160008301516121096000860182612053565b50602083015161211c6020860182612062565b506040830151848203604086015261213482826120b7565b9150506060830151848203606086015261214e82826120b7565b91505060808301516121636080860182612053565b5060a083015161217660a0860182612053565b5060c083015184820360c086015261218e82826120b7565b91505060e08301516121a360e0860182612053565b506101008301516121b8610100860182612053565b508091505092915050565b600060208201905081810360008301526121dd81846120f0565b905092915050565b600061ffff82169050919050565b6121fc816121e5565b82525050565b600060208201905061221760008301846121f3565b92915050565b600081519050919050565b600082825260208201905092915050565b6000819050602082019050919050565b6000610120830160008301516122626000860182612053565b5060208301516122756020860182612062565b506040830151848203604086015261228d82826120b7565b915050606083015184820360608601526122a782826120b7565b91505060808301516122bc6080860182612053565b5060a08301516122cf60a0860182612053565b5060c083015184820360c08601526122e782826120b7565b91505060e08301516122fc60e0860182612053565b50610100830151612311610100860182612053565b508091505092915050565b60006123288383612249565b905092915050565b6000602082019050919050565b60006123488261221d565b6123528185612228565b93508360208202850161236485612239565b8060005b858110156123a05784840389528151612381858261231c565b945061238c83612330565b925060208a01995050600181019050612368565b50829750879550505050505092915050565b600060208201905081810360008301526123cc818461233d565b905092915050565b600082825260208201905092915050565b7f4e6f7420746865206f776e657200000000000000000000000000000000000000600082015250565b600061241b600d836123d4565b9150612426826123e5565b602082019050919050565b6000602082019050818103600083015261244a8161240e565b9050919050565b7f506172746e65722063616e277420626520612073686970706572000000000000600082015250565b6000612487601a836123d4565b915061249282612451565b602082019050919050565b600060208201905081810360008301526124b68161247a565b9050919050565b7f4e6f74206120706172746e657200000000000000000000000000000000000000600082015250565b60006124f3600d836123d4565b91506124fe826124bd565b602082019050919050565b60006020820190508181036000830152612522816124e6565b9050919050565b7f496e76616c696400000000000000000000000000000000000000000000000000600082015250565b600061255f6007836123d4565b915061256a82612529565b602082019050919050565b6000602082019050818103600083015261258e81612552565b9050919050565b7f4e487b7100000000000000000000000000000000000000000000000000000000600052602260045260246000fd5b600060028204905060018216806125dc57607f821691505b6020821081036125ef576125ee612595565b5b50919050565b60008190508160005260206000209050919050565b60006020601f8301049050919050565b600082821b905092915050565b6000600883026126577fffffffffffffffffffffffffffffffffffffffffffffffffffffffffffffffff8261261a565b612661868361261a565b95508019841693508086168417925050509392505050565b6000819050919050565b600061269e61269961269484611b9c565b612679565b611b9c565b9050919050565b6000819050919050565b6126b883612683565b6126cc6126c4826126a5565b848454612627565b825550505050565b600090565b6126e16126d4565b6126ec8184846126af565b505050565b5b81811015612710576127056000826126d9565b6001810190506126f2565b5050565b601f82111561275557612726816125f5565b61272f8461260a565b8101602085101561273e578190505b61275261274a8561260a565b8301826126f1565b50505b505050565b600082821c905092915050565b60006127786000198460080261275a565b1980831691505092915050565b60006127918383612767565b9150826002028217905092915050565b6127aa82612071565b67ffffffffffffffff8111156127c3576127c2611cf6565b5b6127cd82546125c4565b6127d8828285612714565b600060209050601f83116001811461280b57600084156127f9578287015190505b6128038582612785565b86555061286b565b601f198416612819866125f5565b60005b828110156128415784890151825560018201915060208501945060208101905061281c565b8683101561285e578489015161285a601f891682612767565b8355505b6001600288020188555050505b505050505050565b7f4661696c656420746f20636f6d70656e73617465000000000000000000000000600082015250565b60006128a96014836123d4565b91506128b482612873565b602082019050919050565b600060208201905081810360008301526128d88161289c565b9050919050565b6128e881611c04565b82525050565b600060608201905061290360008301866128df565b61291060208301856128df565b61291d6040830184611ba6565b949350505050565b7f4e6f742061207368697070657200000000000000000000000000000000000000600082015250565b600061295b600d836123d4565b915061296682612925565b602082019050919050565b6000602082019050818103600083015261298a8161294e565b9050919050565b7f496e76616c696420616464726573730000000000000000000000000000000000600082015250565b60006129c7600f836123d4565b91506129d282612991565b602082019050919050565b600060208201905081810360008301526129f6816129ba565b9050919050565b7f496e76616c696420617267756d656e7473000000000000000000000000000000600082015250565b6000612a336011836123d4565b9150612a3e826129fd565b602082019050919050565b60006020820190508181036000830152612a6281612a26565b9050919050565b7f4e487b7100000000000000000000000000000000000000000000000000000000600052601160045260246000fd5b6000612aa382611b9c565b91507fffffffffffffffffffffffffffffffffffffffffffffffffffffffffffffffff8203612ad557612ad4612a69565b5b600182019050919050565b7f4e487b7100000000000000000000000000000000000000000000000000000000600052603260045260246000fd5b7f43616e277420557064617465206c6f636174696f6e0000000000000000000000600082015250565b6000612b456015836123d4565b9150612b5082612b0f565b602082019050919050565b60006020820190508181036000830152612b7481612b38565b9050919050565b7f536869707065722063616e2774206265206120706172746e6572000000000000600082015250565b6000612bb1601a836123d4565b9150612bbc82612b7b565b602082019050919050565b60006020820190508181036000830152612be081612ba4565b9050919050565b6000612bf282611b9c565b9150612bfd83611b9c565b9250828203905081811115612c1557612c14612a69565b5b92915050565b7f4e487b7100000000000000000000000000000000000000000000000000000000600052601260045260246000fd5b6000612c5582611b9c565b9150612c6083611b9c565b925082612c7057612c6f612c1b565b5b828204905092915050565b6000612c8682611b9c565b9150612c9183611b9c565b9250828202612c9f81611b9c565b91508282048414831517612cb657612cb5612a69565b5b509291505056fea2646970667358221220c77df638a31047fc15c4fe4e3ffae45803e3a8d91597222e3dd8055d35bdee3c64736f6c63430008120033",
  "immutableReferences": {},
  "source": "// SPDX-License-Identifier: GPL-3.0-only\r\n// Author:- @sauravrao637\r\npragma solidity ^0.8.10;\r\n\r\ncontract CamoParcel{\r\n    address owner;\r\n    mapping(address => bool) authorisedShippers;\r\n    mapping(address => bool) authorisedPartners;\r\n\r\n    modifier onlyOwner() {\r\n        require(msg.sender == owner, \"Not the owner\");\r\n        _;\r\n    }\r\n\r\n    modifier onlyShipper(){\r\n        require(authorisedShippers[msg.sender], \"Not a shipper\");\r\n        _;\r\n    }\r\n\r\n    modifier onlyPartner(){\r\n        require(authorisedPartners[msg.sender], \"Not a partner\");\r\n        _;\r\n    }\r\n    constructor(){\r\n        owner = msg.sender;\r\n    }\r\n    event ParcelShippedEvent(address, address, uint);\r\n    event ParcelLocationUpdated(address, address, uint);\r\n    event ParcelDelivered(address, address, uint);\r\n\r\n    uint parcelId = 0;\r\n    struct Parcel{\r\n        uint id;\r\n        address receiver;\r\n        string itemName;\r\n        string itemDesc;\r\n        uint expectedDelivery;\r\n        uint status; //dispatched->0, inTransit -> 1, delivered -> 2, failed ->3\r\n        string currentLocation;\r\n        uint baseCompensation;\r\n        uint otp;\r\n    }\r\n\r\n    mapping(address => uint[]) userParcels;\r\n    mapping(uint => Parcel) parcels;\r\n\r\n    function addShipper(address shipper) public onlyOwner{\r\n        require(!authorisedPartners[shipper], \"Partner can't be a shipper\");\r\n        authorisedShippers[shipper] = true;\r\n    }\r\n\r\n    function removeAssociate(address user) public onlyOwner(){\r\n        authorisedPartners[user] = false;\r\n        authorisedShippers[user] = false;\r\n    }\r\n\r\n    function removeShipper(address shipper) public onlyOwner{\r\n        authorisedShippers[shipper] = false;\r\n    }\r\n\r\n    function addPartner(address partner) public onlyOwner{\r\n        require(!authorisedShippers[partner], \"Shipper can't be a partner\");\r\n        authorisedPartners[partner] = true;\r\n    }\r\n\r\n    function removePartner(address partner) public onlyOwner{\r\n        authorisedPartners[partner] = false;\r\n    }\r\n\r\n    function shipOrder(string memory itemName, string memory itemDesc, address userAddress, uint expectedDelivery, uint baseCompensation, uint otp) public onlyShipper{\r\n        require(!authorisedPartners[userAddress] && !authorisedShippers[userAddress], \"Invalid address\");\r\n        require(expectedDelivery> block.timestamp, \"Invalid arguments\");\r\n\r\n        Parcel memory parcel = Parcel(\r\n            parcelId,\r\n            userAddress,\r\n            itemName,\r\n            itemDesc,\r\n            expectedDelivery,\r\n            0,\r\n            \"Dispatched\",\r\n            baseCompensation,\r\n            otp\r\n        );\r\n        \r\n        userParcels[userAddress].push(parcelId);\r\n        parcels[parcelId] = parcel;\r\n        \r\n        emit ParcelShippedEvent(msg.sender, userAddress, parcelId);\r\n\r\n        parcelId++;\r\n    }\r\n\r\n    function updateLocation(uint[] memory pIds, string memory location) public onlyPartner{\r\n        for(uint i=0;i<pIds.length;i++){\r\n            uint pId = pIds[i];    \r\n            require(parcels[pId].status == 0 || parcels[pId].status ==1, \"Can't Update location\");\r\n            parcels[pId].currentLocation = location;\r\n            parcels[pId].status = 1;\r\n            emit ParcelLocationUpdated(msg.sender, parcels[pId].receiver, pId);\r\n        }\r\n    }\r\n\r\n    function calcCompensation(uint expectedDelivery, uint baseCompensation) private view returns(uint){\r\n        if(expectedDelivery >= block.timestamp) return 0;\r\n        uint difDays = (block.timestamp - expectedDelivery)/(1 days);\r\n        return difDays*baseCompensation;\r\n    }\r\n\r\n    function markParcelDelivered(uint pId, uint otp) public onlyPartner {\r\n        require(otp == parcels[pId].otp, \"Invalid\");\r\n        require(parcels[pId].status == 0 || parcels[pId].status == 1,\"Invalid\");\r\n        parcels[pId].currentLocation = \"Delivered\";\r\n\t\tparcels[pId].status = 2;\r\n\t\tuint compensation = calcCompensation(parcels[pId].expectedDelivery, parcels[pId].baseCompensation);\r\n\t\tif(compensation !=0){\r\n\t\t\tbool sent = payable(parcels[pId].receiver).send(compensation);\r\n\t\t\trequire(sent, \"Failed to compensate\");\r\n\t\t}\r\n\t\temit ParcelDelivered(msg.sender, parcels[pId].receiver, pId);\r\n    }\r\n\r\n    function viewMyParcels() public view returns (Parcel[] memory) {\r\n        Parcel[] memory myParcels = new Parcel[](userParcels[msg.sender].length);\r\n        for(uint i=0;i< userParcels[msg.sender].length;i++){\r\n            myParcels[i] = parcels[userParcels[msg.sender][i]];\r\n        }\r\n        return myParcels;\r\n    }\r\n\r\n    function viewparcel(uint pId) public view onlyShipper returns(Parcel memory){\r\n        return parcels[pId];\r\n    }\r\n\r\n    function withdrawFunds() public payable onlyOwner{\r\n        payable(msg.sender).transfer(address(this).balance);\r\n    }\r\n\r\n    receive() external payable {}\r\n    fallback() external payable {}\r\n\r\n    function getBalance() public view returns (uint) {\r\n        return address(this).balance;\r\n    }\r\n\r\n    function fund() public payable{\r\n        require(msg.value!=0);\r\n    }\r\n\r\n    function getMyType() public view returns (uint16){\r\n        if (authorisedPartners[msg.sender]) return 1;\r\n        if(authorisedShippers[msg.sender])  return 0;\r\n        if(msg.sender == owner) return 999;\r\n        return 2;\r\n    }\r\n}\r\n",
  "sourcePath": "C:\\Users\\asus\\Desktop\\Project\\ParcelPledge\\blockchain\\contracts\\CamoParcel.sol",
  "compiler": {
    "name": "solc",
    "version": "0.8.18+commit.87f61d96.Emscripten.clang"
  },
  "schemaVersion": "3.4.14",
  "updatedAt": "2023-07-14T03:20:36.095Z",
  "networkType": "ethereum",
  "devdoc": {
    "kind": "dev",
    "methods": {},
    "version": 1
  },
  "userdoc": {
    "kind": "user",
    "methods": {},
    "version": 1
  }
}